:020000040800F2
:10000000A8050020010100084D2E0008D127000896
:10001000492E0008C9040008093600080000000045
:100020000000000000000000000000003135000862
:10003000CD040008000000002D350008353500080B
:100040001B0100081B0100081B0100081B01000820
:100050001B0100081B0100081B0100081B01000810
:100060001B0100081B0100081B0100081B01000800
:100070001B0100081B0100081B0100081B010008F0
:100080001B0100081B0100081B0100081B010008E0
:100090001B0100081B0100081B0100081B010008D0
:1000A0001B0100081B0100081B0100081B010008C0
:1000B0001B0100081B0100081B0100081B010008B0
:1000C0001B0100081B0100081B0100081B010008A0
:1000D0001B0100081B0100081B0100081B01000890
:1000E0001B0100081B0100081B010008DFF80CD0F1
:1000F00000F090F9004800476D380008A80500207E
:100100000648804706480047FEE7FEE7FEE7FEE7B1
:10011000FEE7FEE7FEE7FEE7FEE7FEE7393500080B
:10012000ED0000082DE9F04D81EA030404F0004BD6
:1001300021F0004514464FF0000A23F0004150EA38
:10014000050220D054EA01021DD0C5F30A57024629
:10015000C5F31303C1F31300C1F30A5640F480152D
:1001600043F48013A7EB0608101BD64608F2FD38AF
:1001700073EB050002D308F1010801E092185B411E
:10018000B8F1000F03DA00200146BDE8F08D002031
:100190004FF48011064684460EE0171B73EB0507EB
:1001A00005D3121B63EB050306434CEA010C490817
:1001B0004FEA300092185B4150EA0107EDD152EA54
:1001C000030012D082EA040083EA0501084305D047
:1001D000101BAB4106D20122002306E000224FF0A3
:1001E000004302E06FF0010253101AEB06004CEBE3
:1001F000085110EB0A0041EB0B01BDE8F04D00F097
:10020000ACB8002801DBC0F10040002901DBC1F1DE
:100210000041814201D20120704700207047002830
:1002200001DBC0F10040002901DBC1F10041814246
:1002300001D9012070470020704796230022114603
:1002400000F05DB80EB5C10F80EAE0700844CA073F
:10025000002140F233438DE80E000A460B4600F0C1
:100260008BF803B000BD20F00040C10DC0F31600B4
:1002700040F400007F2901DA00207047962903DC52
:10028000C1F19601C840704796398840704770B5F3
:10029000C1F30A5201F000450024C1F3130140F2FA
:1002A000FF3341F480119A4201DA002070BD40F220
:1002B00033439A42A2F2334203DC524200F006F882
:1002C00000E090402C43F1D0404270BD202A04DB76
:1002D000203A21FA02F00021704721FA02F3D040BF
:1002E000C2F1200291400843194670470029A8BF77
:1002F0007047401C490008BF20F00100704710B44F
:10030000B0FA80FC00FA0CF050EA010404BF10BC03
:10031000704749B1CCF1200421FA04F411FA0CF130
:1003200018BF012121430843A3EB0C01CB1D4FEA69
:1003300000614FEA102042BF002010BC704700EB64
:10034000C35010440029A4BF10BC7047401C490092
:1003500008BF20F0010010BC704710B5141E73F1E7
:10036000000408DA401C41F1000192185B411A4375
:1003700001D120F0010010BD2DE9F04D92469B46C1
:1003800011B1B1FA81F202E0B0FA80F22032904667
:1003900000F052F804460F4640EA0A0041EA0B0119
:1003A00053465A46084313D0114653EA010019D068
:1003B000C8F140025046FFF789FF05460E465046F9
:1003C0005946424600F038F8084305D0012004E0C1
:1003D00020463946BDE8F08D0020054346EAE07628
:1003E0002C4337430A986305E40AA0EB0800002277
:1003F000FD0A44EA47540A3002D500200146E9E7E5
:10040000010510196941DDE9084500196941BDE898
:10041000F04DA2E7064C074D06E0E06840F001030E
:1004200094E8070098471034AC42F6D3FFF762FE19
:10043000785F0008985F0008202A04DB203A00FA61
:1004400002F1002070479140C2F1200320FA03F32B
:10045000194390407047000080B5008840BAFFF70C
:10046000F1FE43F23333C3F6F3734FF03332FFF749
:1004700059FEFFF70CFF80B280BD000080B582B04E
:10048000024640F27C004FF6FF7CC2F2000047219A
:100490000223CDF800C000F05FFA02B080BD00007A
:1004A00080B582B08DF8070040F27C004FF6FF7CEB
:1004B000C2F200000DF1070246210123CDF800C071
:1004C00000F0BAFD02B080BDFEE7000070470000FA
:1004D000EFF3108072B600BFFEE70000F0B590F8B1
:1004E00020C0BCF1010F32D090F821C04FF0010EB6
:1004F000BCF1010F80F820E026D14FF0020C80F80B
:1005000021C04FF0000CC0F838C0D0E900C4C56A63
:10051000C66BDCF80070102C27F00107CCF80070D7
:10052000006C0EFA00F070600846CCF8043004BF8E
:1005300010460A46CCF80800CCF80C20DCF8000085
:1005400045B140F00E000DE0002180F8201002209F
:10055000F0BD00BF20F00400CCF80000DCF8000083
:1005600040F00A00CCF80000DCF8000040F0010088
:10057000CCF800000020F0BDB0B5044600F02AF928
:10058000054640F20000C2F200000078611C18BF6E
:10059000044400BF00F01EF9401BA042FAD3B0BDD6
:1005A0002DE9F04F82B00E68002E00F0038140F27A
:1005B0000C4C41F200424FF6FF7EC4F2010CC4F233
:1005C0000102042700240123C1F2100E4FF0000A9B
:1005D0004FF00009904208BF0327009745E000BF95
:1005E000012704F00C030F229A402BEA020207FABB
:1005F00003F34FEA9A051A4346F82520D1F804B0D0
:1006000040F20045C4F201055FEACB322A6854BFCC
:1006100022EA080242EA08022A606A685FEA8B332B
:1006200054BF22EA080242EA08026A605FEACB236A
:10063000AA6854BF22EA080242EA08025FEA8B2352
:10064000AA60DCF800204FF0010354BF22EA080240
:1006500042EA0802CCF800200E680AF1010A36FAD4
:100660000AF204F1040400F0A58003FA0AF816EA7D
:10067000080FF1D04E68764512DC122E56D8DFE80E
:1006800006F0350B45495555555555555555555554
:100690005555554D510000BFD1F80C9046E000BFB4
:1006A0004FF6FF72C1F2210296420FDC0022C1F226
:1006B000110296421AD00022C1F21202964215D0BF
:1006C0000022C1F22102964210D02FE00022C1F296
:1006D000220296420AD00022C1F23102964205D08F
:1006E0000022C1F23202964220D100BF8A684AB18C
:1006F000012A14BFC0F81480C0F810804FF0080918
:1007000014E000BF4FF0040910E000BFCA6802F116
:1007100008090BE04FF0000908E000BFCA6802F1C9
:10072000040903E0CA6802F10C0900BF224606462C
:10073000BAF1080F24BF203A043637680F259540D8
:1007400027EA050509FA02F22A433260CA79D2067D
:100750007FF582AF41F21803C4F202031A6842F037
:1007600001021A601A6802F001020192019A40F235
:100770000042C4F20102A2F57E762AF0030256F886
:1007800002B040F60002C4F20102904210D040F6DE
:100790000042C4F2010290423FF422AF41F2000253
:1007A000C4F20102009F904208BF022719E700BF70
:1007B000002716E702B0BDE8F08F0000806808400F
:1007C00018BF012070470000002A08BF090401611A
:1007D0007047000040F2A410C2F2000000687047A9
:1007E00070B5B8B3044690F83D0028B9002084F8ED
:1007F0003C00204600F04AFF242084F83D00206899
:10080000016821F001010160016841F400410160CB
:10081000016821F40041016001F026F948F28041AD
:10082000C0F21E0140F60013D4F804E088424FF0F5
:100830000001C0F23D0348F2A16C4FF0000238BF46
:1008400001219842C0F2010C38BF0122E64538BFB1
:100850000A460AB1012070BD4DF68361C4F21B3116
:10086000A0FB01122168950C4B684FF4967623F09B
:100870003F0343EA9243754344F6D3564B60C1F2BB
:1008800062060B6AA5FB0656B50923F03F03E64551
:1008900038BF950C6A1C1A430A62CA6948F2A066FE
:1008A0004CF6FF73C0F20106B64522EA03020BD8EC
:1008B00001384FEA4E03B0FBF3F001306FF31F3005
:1008C000042898BF04201EE0A368013863B11923EF
:1008D0000EFB03F3B0FBF3F001306FF31F3078B180
:1008E00000F5804008E000BF0EEB4E03B0FBF3F0D4
:1008F00001306FF31F3028B100F5004003E000BF66
:10090000012000E001201043C8610868D4E90723F2
:1009100020F0C000104318430860886848F2FF3296
:1009200004F10C0690434CCE18431043A56988602F
:10093000C86820F0FF0030432843C860086840F0D2
:100940000100086000202021206484F83D1020630D
:1009500084F83E0070BD00002DE9F04782B00446E7
:1009600000201F46164688460090FFF733FF94F894
:100970003D1020291CD1054620688169890713D5BF
:10098000FFF728FF401B1928F6D9002020212063FB
:1009900084F83D1084F83E00216C41F02001216470
:1009A00084F83C0004E000BF94F83C10012903D116
:1009B000022002B0BDE8F087012184F83C100168F4
:1009C000C90703D1016841F001010160016821F408
:1009D00000610160222184F83D10102184F83E104E
:1009E0000021216466626785618D21850021CFF633
:1009F000FF71E162E16A026811F5803F42F48062B2
:100A0000026018BF012919D1016841F480710160A9
:100A100041690A9EC90724D1711C18D0002E00F02C
:100A2000CB8000BFFFF7D6FE401BB04200F2C6806D
:100A300020684169C907F5D013E000BF0829E3D059
:100A4000216B1129E0D0E3E74169C90709D1416968
:100A5000C90706D14169C90704BF41695FEAC1718D
:100A6000F2D02169B1F5804F08D148F00101C9B237
:100A700001614169890740F1CC8003E1062101EA67
:100A8000D81707F1F00101614169090738D44169BC
:100A9000721C01F4806113D0002940F0EA80002E1E
:100AA00000F06A82FFF796FE401BB04200F26682B9
:100AB00020684169090723D441694905F2D5D8E086
:100AC000002940F0D6804169090719D441694905D8
:100AD00000F1CF804169090712D44169490500F14D
:100AE000C880416909070BD44169490500F1C180FB
:100AF0004169090704D441694905E4D5B9E000BF5B
:100B00005FFA88F101614169890739D44169721C32
:100B100001F4806114D0002940F0AB80002E00F079
:100B20002B82FFF757FE401BB04200F2278220685D
:100B30004169890724D441694905F2D599E000BF8C
:100B4000002940F096804169890719D44169490517
:100B500000F18F804169890712D44169490500F18C
:100B60008880416989070BD44169490500F181807A
:100B70004169890704D441694905E4D579E000BF9A
:100B800000210191416901918169019101990168F7
:100B900041F4807101604169C90734D1711C28D0CA
:100BA00056B1FFF717FE401BB04207D820684169D5
:100BB000C907F6D027E000BFFFF70CFE0020202178
:100BC000206384F83D1084F83E00216C41F0200140
:100BD0002164216884F83C000868C00544BF4FF4D4
:100BE00000702064012002B0BDE8F0874169C907A8
:100BF00009D14169C90706D14169C90704BF4169E3
:100C00005FEAC171F2D047F0F101016141698907E2
:100C100038D44169721C01F4806111D049BB002EA7
:100C200000F0AA81FFF7D6FD401BB04200F2A6817A
:100C300020684169890725D441694905F2D518E042
:100C4000B9B9416989071DD44169490511D4416980
:100C5000890717D4416949050BD44169890711D423
:100C60004169490505D4416989070BD441694905A2
:100C7000E7D5016841F4007101606FF48061416162
:100C800004207CE1218D022910D0012924D00029E3
:100C900038D1002101914169019181690191019946
:100CA000016841F40071016037E000BF016841F460
:100CB00000610160EFF3108072B60020019020689F
:100CC00041690191816901910199016821F4806173
:100CD000016062B621E000BF016821F4806101601B
:100CE000EFF3108072B600200190206841690191F5
:100CF000816901910199016841F40071016062B656
:100D00000BE000BF016841F48061016000210191A6
:100D100041690191806901900198208D002800F0BF
:100D20001F8140F224084BF28959771CC2F2000857
:100D3000C1F2F8494FF0230A80B2032818D80228DC
:100D400040D0012868D1002E00F0D68020680146EE
:100D500051F8142F520600F1D3800868C00600F144
:100D60004381FFF737FD401BB042EFD931E100BFAF
:100D700086B100BF2068014651F8142F52060ED4E8
:100D80000868C00600F13081FFF724FD401BB04227
:100D9000F0D91EE120684169490640F113810069DC
:100DA000616A0870606A2268411C208D61620138A6
:100DB0002085638D013B638553695B0740F1AC80FF
:100DC00010699FE02068416949070FD4002F00F0A7
:100DD000A780002E00F01C81FFF7FCFC401BB042F6
:100DE00000F21881206840694007F5D5EFF31080C4
:100DF00072B62068616A026842F40072026000699B
:100E00000870606A218D01306062481E2085608D07
:100E10000138608562B66AE02068416949070FD4ED
:100E2000002F00F08D80002E00F0F280FFF7D2FC42
:100E3000401BB04200F2EE80206841694907F5D5B9
:100E4000016821F480610160EFF3108072B62068C0
:100E5000616A00690870606A218D01300139606241
:100E60002185618D01396185D8F80010C908A1FB81
:100E70000912110A01FB0AF1009100990139009150
:100E80000099002900F08C8021684A6952071ED41D
:100E90000099013900910099002900F081802168B2
:100EA0004A69520713D40099013900910099002929
:100EB00076D021684A69520709D400990139009116
:100EC000009900296CD021684A695207D5D50A6873
:100ED00042F400720A6009690170606A218D013074
:100EE0006062481E2085608D0138608562B620688A
:100EF000616A006906E000BF20684169490661D562
:100F00000069616A0870606A218D01306062481E64
:100F10002085618D0139618501047FF40DAF1FE0EB
:100F2000416949073FF562AF416949075CBF4169C3
:100F30005FEA41713FF55AAF41694907F0D555E77E
:100F4000416949073FF57CAF416949075CBF416989
:100F50005FEA41713FF574AF41694907F0D56FE72A
:100F6000202084F83D00002084F83E0084F83C00F6
:100F700002B0BDE8F08700BFFFF72CFC2020002165
:100F80002022216384F83D2084F83E10226C104317
:100F9000206484F83C10012002B0BDE8F08700BF57
:100FA00000202021206384F83D1084F83E00216C4D
:100FB00041F02001216462B684F83C00012002B0B7
:100FC000BDE8F08750F8141FC90601460CD4FFF79E
:100FD00001FC00202021206384F83D1084F83E00AD
:100FE000206C40F020000AE06FF010000860002044
:100FF0002021206384F83D1084F83E00206C20649A
:10100000002084F83C00012002B0BDE8F08700BF5A
:10101000FFF7E0FB00202021206384F83D1084F8D6
:101020003E00216C41F02001216484F83C00012045
:1010300002B0BDE8F08700002DE9F04381B01F4603
:10104000164688460446FFF7C5FB94F83D10202954
:1010500020D1054620688169890717D5FFF7BAFBBB
:10106000401B1928F6D900202021206384F83D1068
:1010700084F83E00216C022641F02001216484F8AE
:101080003C00304601B0BDE8F08300BF94F83C104E
:10109000012905D10226304601B0BDE8F08300BF2A
:1010A000012184F83C100168C90703D1016841F0AF
:1010B00001010160016821F400610160212184F8CF
:1010C0003D10102184F83E1000212164666267857E
:1010D000618D21850021CFF6FF71E162E16A11F592
:1010E000803F18BF012919D1016841F48071016066
:1010F0004169DDF82090C90723D119F1010116D00B
:10110000B9F1000F46D000BFFFF764FB401B484514
:1011100042D820684169C907F6D012E00829E3D017
:10112000216B1229E0D0E3E74169C90709D1416980
:10113000C90706D14169C90704BF41695FEAC171A6
:10114000F2D02169B1F5804F02D1FE2161E000BFEC
:10115000062101EAD811F03101614169090757D42C
:10116000416919F1010201F480612FD0002946D1B3
:10117000B9F1000F00F04281FFF72CFB401B4845FE
:1011800000F23E8120684169090741D4416949055F
:10119000F2D534E0FFF71EFB00202021206384F805
:1011A0003D1084F83E00216C012641F020012164AD
:1011B000216884F83C000868C00544BF4FF4007003
:1011C0002064304601B0BDE8F08300BFB9B9416981
:1011D00009071DD44169490511D44169090717D48C
:1011E000416949050BD44169090711D44169490591
:1011F00005D4416909070BD441694905E7D5016860
:1012000041F4007101606FF4806141610420F8E0F5
:10121000FF2101EA08010161416989073AD4416966
:1012200019F1010201F4806112D051BBB9F1000F34
:1012300000F0E080FFF7CEFA401B484500F2DC806A
:1012400020684169890725D441694905F2D518E02C
:10125000B9B9416989071DD44169490511D441696A
:10126000890717D4416949050BD44169890711D40D
:101270004169490505D4416989070BD4416949058C
:10128000E7D5016841F4007101606FF4806141614C
:101290000420B6E000260096416900918169009122
:1012A0000099218D002900F0958009F1010801467F
:1012B00051F8142F120635D4B8F1000F16D0B9F139
:1012C000000F00F0AF8000BF0868400500F1B28059
:1012D000FFF780FA401B484500F2A98020680146CC
:1012E00051F8142F1206EFD51CE000BF0A68520512
:1012F00000F1A0800A68120614D40A68520500F1B1
:1013000099800A6812060DD40A68520500F192808D
:101310000A68120606D40A68520500F18B800A6832
:101320001206E3D5636A194611F8012B0261616266
:10133000618D01396185278D0146A7F1010CA4F863
:1013400028C051F8142F52070DD55FEA0C420AD07D
:101350005A78A7F1020C02619A1C6262628D013A0E
:101360006285A4F828C00A6852072FD4B8F1000F8C
:1013700014D0B9F1000F7BD00868400500F18080DF
:10138000FFF728FA401B484577D82068014651F8F6
:10139000142F5207F0D5B4F828C017E00A68520598
:1013A0006ED40A68520711D40A68520568D40A68D4
:1013B00052070BD40A68520562D40A68520705D452
:1013C0000A6852055CD40A685207E7D55FEA0C4107
:1013D0007FF46DAF016841F400710160202084F852
:1013E0003D0084F83E6084F83C60304601B0BDE8C2
:1013F000F08300BFFFF7EEF9202002E0FFF7EAF9E3
:10140000202000212022216384F83D2084F83E1012
:10141000226C01261043206484F83C10304601B051
:10142000BDE8F0830868400504D4FFF7D3F9202015
:1014300004E000BF6FF480600860042000212022D7
:10144000216384F83D2084F83E10226C1043206410
:1014500084F83C10206C042825D1206801260168FE
:1014600041F400710160304601B0BDE8F08300BF77
:101470000868400504D4FFF7ADF9202004E000BF60
:101480006FF480600860042000212022216384F82A
:101490003D2084F83E10226C1043206484F83C10F8
:1014A000206C0428D9D00126304601B0BDE8F08375
:1014B0002DE9F04383B0994616460F460446FFF7E0
:1014C00089F994F83D1020291CD1054620688169CE
:1014D000890713D5FFF77EF9401B1928F6D900209C
:1014E0002021206384F83D1084F83E00216C41F0F7
:1014F0002001216484F83C0004E000BF94F83C1013
:10150000012903D1022003B0BDE8F083012284F851
:101510003C200368DDE90B180A9ADB0703D1036856
:1015200043F001030360036823F400630360212098
:1015300084F83D00402084F83E0000202064626270
:101540006185608D394620850020CFF6FF70E0620E
:10155000204632464B46CDF80080019501F03AF91D
:1015600020B1012003B0BDE8F08300BF208D00282A
:1015700050D0206808F10106014651F8142F1206D8
:101580002CD49EB1B8F1000F5AD000BF08684005B6
:101590005ED4FFF71FF9401B404556D8206801462E
:1015A00051F8142F1206F1D518E000BF0A68520551
:1015B0004ED40A68120611D40A68520548D40A6843
:1015C00012060BD40A68520542D40A68120605D4E2
:1015D0000A6852053CD40A681206E7D5626A1146C9
:1015E00011F8013B0361238D6162591E2185678DCE
:1015F000013F678547697F070AD50F0408D05178F6
:101600000161911C6162991E2185628D013A62859A
:101610000904B1D1204641462A4601F015FA38BBEB
:101620002068016841F400710160202084F83D00C9
:10163000002084F83E0084F83C0003B0BDE8F0834D
:101640000868400504D4FFF7C5F8202004E000BF77
:101650006FF480600860042000212022216384F858
:101660003D2084F83E10226C1043206484F83C1026
:10167000206C04287FF475AF2068016841F4007184
:101680000160012003B0BDE8F083000010B586B012
:10169000006845F60001C4F2000188424FF00001E5
:1016A000CDE90411CDE9021134D045F20041C4F274
:1016B0000001884252D141F21804C4F202042068A9
:1016C00002A940F008002060206800F008000190A6
:1016D00001984FF44070029012200390032005906F
:1016E00040F60040C4F20100FEF75AFF0420C4F2A5
:1016F0000100016841F0E06141F0020101606068B1
:1017000040F400106060606800F4001001900198DF
:1017100006B010BD41F21804C4F20204206802A908
:1017200040F008002060206800F008000190019857
:101730004FF440600290122003900320059040F681
:101740000040C4F20100FEF72BFF606840F4800007
:101750006060606800F480000190019806B010BDE0
:1017600040F2000040F2A411C2F20000C2F20001F7
:1017700000780A68104408607047000080B542F2A3
:101780000000C4F20200016841F010010160032072
:1017900000F07AF80F2000F005F800F027F800209C
:1017A00080BD000070B540F20006C2F2000640F2B3
:1017B00024013278C2F200014FF47A730968B3FB56
:1017C000F2F20446B1FBF2F1084600F04FFB0F2C99
:1017D0004FF0010508D838B94FF0FF3021460022FC
:1017E000002500F025F87460284670BD82B041F2F3
:1017F0001800C4F202000168022241F001010160F8
:10180000016801F0010101910199416841F08051A5
:101810004160406800F08050009000980420C4F2BD
:101820000100016862F31A61016002B070470000B4
:1018300010B54EF60C5CCEF2000CDCF80030C3F3B1
:10184000022E8EF00704042C28BF0424BEF10303EB
:101850004FF0FF3E0EFA04F438BF0023A143994035
:101860000EFA03F39A43114300F00F0200F16043B4
:101870000901043A03F564436244002848BF02F1B9
:101880000C03197010BD00004EF60C51CEF2000191
:101890000A684FF6FF031A4060F30A2242F08060A4
:1018A00040F0FD70086070472DE9F04381B00028DA
:1018B00000F0858042F20008C4F202080446D8F81D
:1018C00000000D4600F0070088420CD2D8F8000056
:1018D00020F007002843C8F80000D8F8000000F006
:1018E0000700A8426BD1206841F204098107C4F2C5
:1018F000020917D5410705D5D9F8001041F4E06178
:10190000C9F80010010705D5D9F8001041F460515D
:10191000C9F80010D9F80010A26821F0F0011143B5
:10192000C9F80010C00741D1D8F8000000F0070046
:10193000A8420CD9D8F8000020F007002843C8F8C6
:101940000000D8F8000000F00700A84237D1206856
:10195000410707D5D9F80010E26821F4E06111438E
:10196000C9F80010000708D5D9F80000216920F453
:10197000605040EAC100C9F80000D9F8002002F028
:101980000C00082841F20020C0F27A0050D145F640
:101990006673C2F38341C0F60003595CD2033BD4A3
:1019A00040F60010C0F23D00484341E06068022864
:1019B0000AD001282AD159F8041C890308D401202F
:1019C00001B0BDE8F08300BF59F8041C8901F6D5C9
:1019D000D9F8001021F003010843C9F80000FEF710
:1019E000F9FE064641F28837D9F80000616800F038
:1019F0000C00B0EB810F97D0FEF7ECFE801BB842D5
:101A0000F2D9032001B0BDE8F08300BF59F8041CEF
:101A10008907D4D5DCE700BFD9F8002043F660334E
:101A2000C2F34042C0F600039A5C4843B0FBF2F0B8
:101A3000D9F8001043F66232C1F30311C0F6000278
:101A4000515C40F2240220FA01F140F20400C2F29B
:101A500000000068C2F200021160FFF7A3FE002040
:101A600001B0BDE8F083000040F2240041F204011F
:101A7000C2F20000C4F202010068096843F6723243
:101A8000C1F30221C0F60002515CC840704700005B
:101A900040F2240041F20401C2F20000C4F202014B
:101AA0000068096843F67232C1F3C221C0F6000231
:101AB000515CC840704700002DE9F04182B0002819
:101AC00068D00446007841F20006C007C4F202065E
:101AD00025D0706800F00C0004281BD0706800F05E
:101AE0000C00082802D17068C00313D46068002875
:101AF00000F06881B0F5A02F00F07C81B0F5803F48
:101B000000F07C81306820F480303060306820F450
:101B1000802076E13068800301D56068D0B32078FA
:101B2000800718D5706810F00C0F07D0706800F0AF
:101B30000C0008286ED17068C0036BD43068800731
:101B400002D52069012825D13068616920F0F800AC
:101B500040EAC1003060207800071FD42078400799
:101B600032D4E56995B1706800F00C00082840F0A7
:101B70008F80012D0ED07068216A00F480328A4275
:101B800008D1616A00F47010884203D1002002B0CD
:101B9000BDE8F081012002B0BDE8F081A069002815
:101BA00062D00020C4F242200121C0F88014FEF768
:101BB00011FE0546706A800700F18C80FEF70AFE70
:101BC000401B0228F6D92AE1F06910F0805808D1AC
:101BD000F06940F08050F061F06900F080500090B2
:101BE000009847F20007C4F200073868C00529D4FE
:101BF000386840F480703860FEF7ECFD054600BFA1
:101C00003868C0051ED4FEF7E5FD401B6428F7D9EF
:101C100005E100BF2069002840F20000C4F2422024
:101C200000F0828001210160FEF7D4FD054600BF6F
:101C3000306880073FF588AFFEF7CCFD401B0228D7
:101C4000F6D9ECE0E068002800F08080052800F07C
:101C50009780012800F09880306A20F001003062FF
:101C6000306A20F0040092E00020C4F242200021FB
:101C7000C0F88014FEF7AEFD054600BF706A80070D
:101C80007FF56CAFFEF7A6FD401B0228F6D9C6E033
:101C90000027C4F2422700203866FEF79BFD022D84
:101CA00005460BD13068800140F1BE80FEF792FD01
:101CB000401B02284FF00300F4D968E73068800128
:101CC0007FF564AFFEF786FD401B02284FF003004E
:101CD000F4D95CE740F22400C2F20000006844F648
:101CE000D351C1F26201A0FB0101480A019000BF7B
:101CF00000BF0198411E002801913FF42FAF00BFA3
:101D00000198411E002801913FF428AF00BF0198BF
:101D1000411E002801913FF421AF00BF0198411EF0
:101D200000280191E4D119E700210160FEF752FD7E
:101D3000054600BF306880077FF50DAFFEF74AFD0E
:101D4000401B02284FF00300F4D920E7306A20F04E
:101D500001003062306A20F004003062FEF73AFD84
:101D6000054641F2883700BF306A800720D5FEF76C
:101D700031FD401BB8424FF00300F5D907E700BF23
:101D8000306A40F004003062306A40F00100306296
:101D9000FEF720FD054641F2883700BF306A800714
:101DA00006D4FEF717FD401BB842F7D937E000BF55
:101DB000B8F1000F7FF4D5AEF06920F08050F061EB
:101DC000CFE600BF306820F480303060306820F407
:101DD00080203060FEF7FEFC054600BF30688003BF
:101DE0007FF59DAEFEF7F6FC401B64284FF0030024
:101DF000F4D9CCE6306840F480203060306840F49C
:101E000080303060FEF7E6FC054600BF3068800396
:101E10003FF585AEFEF7DEFC401B6428F6D90320B3
:101E200002B0BDE8F08100BF206AB0F5803F05D167
:101E30007168A26821F40031114371607168626AAF
:101E400021F4741111430843706001203866FEF7D5
:101E5000C1FC0446306880013FF598AEFEF7BAFC3D
:101E6000001B02284FF00300F4D990E6411E002029
:101E7000B0EB116F1CBF012070474EF21002CEF282
:101E8000000251604EF62351CEF20001F0230B7098
:101E9000072190601160704710B590F83C20012A2E
:101EA0004FF0020233D080F83D200268D2F804E0FF
:101EB000D2F808C00C682EF07003234340F2FF7480
:101EC000C4F20004A24253600ADCB2F1804F13D086
:101ED00040F20043C4F200039A420DD011E000BF6B
:101EE00042F60043C4F201039A4205D040F60003D3
:101EF000C4F200039A4204D149682CF080031943CC
:101F000091600121002280F83D1080F83C201046AD
:101F100010BD0000002804BF0120704710B5044622
:101F200090F83D0028B9002084F83C00204600F0DD
:101F300067F8022084F83D00206840F2FF730268D1
:101F4000C4F2000342F6004C9842C4F2010C15DCC6
:101F5000B0F1804F1AD040F20041C4F20001884233
:101F600014D0984218DCB0F1804F1DD040F20041EF
:101F7000C4F20001884217D01AE000BF604505D0C6
:101F800040F60001C4F200018842EAD1A16822F0C3
:101F900070020A439842E6DD604505D040F6000134
:101FA000C4F20001884203D1216922F440720A433D
:101FB000A36922F08001D4F804E0E2681943604587
:101FC0000160C262C0F828E002D16169CCF830102B
:101FD00001214161002084F8461084F83E1084F805
:101FE0003F1084F8401084F8411084F8421084F8BF
:101FF000431084F8441084F8451084F83D1010BD57
:1020000082B00068B0F1804F14D042F60041C4F2B3
:10201000010188421BD141F21800C4F2020001689C
:1020200041F400610160006800F4006001900198D3
:1020300002B0704741F21800C4F20200416841F05A
:1020400001014160406800F001000090009802B07A
:102050007047000080B590F83C20012A4FF0020242
:1020600000F0BF8080F83D20D0F800C04FF67772B6
:10207000DCF8083023EA0202CCF808200B683F2B7A
:102080001CDD5F2B20DD602B50D0B3F5005F6DD0E1
:10209000702B40F0A080D1E901E3C968DCF808208A
:1020A00043EA0E0322F47F4243EA01211143CCF8B4
:1020B0000810DCF8081041F077018AE01F2B29DCBA
:1020C00063B3102B2AD086E0402B63D0502B40F016
:1020D0008280D1F804E0C968DCF82030DCF82020E8
:1020E00022F00102CCF82020DCF8182022F0F002C7
:1020F00042EA011123F00A0242EA0E02CCF818105B
:10210000CCF82020DCF8081041F0570121F0200124
:102110005FE000BF202B01D0302B5CD1DCF8081031
:1021200021F07001194341F0070152E0D1F804E0B9
:10213000C968DCF8203023F01003CCF82030DCF83C
:102140001830DCF8202023F4704322F0A00243EA88
:10215000013142EA0E12CCF81810CCF82020DCF83D
:10216000081041F0670121F0100132E0D1E901E3EC
:10217000C968DCF8082043EA0E0322F47F4243EAF0
:1021800001211143CCF80810DCF8081041F480411B
:102190001FE000BFD1F804E0C968DCF82030DCF8AB
:1021A000202022F00102CCF82020DCF8182022F0B8
:1021B000F00242EA011123F00A0242EA0E02CCF8D0
:1021C0001810CCF82020DCF8081041F0470121F06D
:1021D0003001CCF808100121002280F83D1080F871
:1021E0003C20104680BD00002DE9F04390F83C30C3
:1021F000012B04BF0220BDE8F0834FEAB202032A9C
:1022000000F2E980DFE802F0023A78B4036842F6AF
:1022100000461A6AC4F2010622F001021A621D6A1F
:102220001A465C6852F818CFB3428E68D1F800E0C5
:1022300025F0020545EA06050CD1CE68D1E90578FE
:1022400024F4407425F00C0526F004063C43354385
:1022500044EA08042CF0730747EA0E075C609F61AC
:102260004F6809695F631D629F6947F008079F61B6
:102270009F6927F004079F61AAE000BF036842F648
:1022800000461A6AC4F2010622F010021A621D6AA0
:102290001A46D3F804C052F8184FB3428E68D1F8EA
:1022A00000E025F0200545EA061510D1CE68D1E9F9
:1022B000058725F0C0096FF0400505EA06152CF4E6
:1022C000406647EA080745EA090546EA870C24F410
:1022D000E64444EA0E27C3F804C09F614F680969C9
:1022E0009F631D629F6947F400679F619F6927F4A0
:1022F00080679F616BE000BF036842F600461A6A80
:10230000C4F2010622F480721A621D6A1A46D3F8DA
:1023100004C052F81CEFB3428E680C6825F40075B7
:1023200045EA062511D1CE68D1E9058725F4406933
:10233000360240F2FF4526EA05052CF4405647EAEE
:10234000080745EA090546EA071C2EF073072743EC
:10235000C3F804C0DF614F680969DF631D62DF698C
:1023600047F00807DF61DF6927F00407DF612FE02E
:10237000036842F600471A6AC4F2010722F4805249
:102380001A621A46D3F820C05D6852F81C4FD1F883
:1023900000E08E68BB4204D14F6925F4804545EAD0
:1023A00087152CF4005747EA063724F4E64646EA38
:1023B0000E265D60DE614E6809691E641F62DF697A
:1023C00047F40067DF61DF6927F48067DF61090296
:1023D000136819431160002180F83C100846BDE8DD
:1023E000F0830000002804BF0120704710B50446A8
:1023F00090F83D0028B9002084F83C00204600F009
:1024000067F8022084F83D00206840F2FF730268FC
:10241000C4F2000342F6004C9842C4F2010C15DCF1
:10242000B0F1804F1AD040F20041C4F2000188425E
:1024300014D0984218DCB0F1804F1DD040F200411A
:10244000C4F20001884217D01AE000BF604505D0F1
:1024500040F60001C4F200018842EAD1A16822F0EE
:1024600070020A439842E6DD604505D040F600015F
:10247000C4F20001884203D1216922F440720A4368
:10248000A36922F08001D4F804E0E26819436045B2
:102490000160C262C0F828E002D16169CCF8301056
:1024A00001214161002084F8461084F83E1084F830
:1024B0003F1084F8401084F8411084F8421084F8EA
:1024C000431084F8441084F8451084F83D1010BD82
:1024D0007047000041B1082910D0042914BF00F151
:1024E000410200F13F020BE090F83E20012A1CBFA0
:1024F00001207047022280F83E2013E000F14002E4
:102500001278012A1CBF012070470222082907D037
:10251000042914BF80F8412080F83F2002E000BF6A
:1025200080F84020006801F01F010122036A8A4000
:1025300023EA02010162036A42F64441C4F2010146
:102540001A43A1F14403984202620FD040F2FF7196
:10255000C4F20001884213DCB0F1804F1CD040F27D
:102560000041C4F20001884216D01CE00A6842F41F
:1025700000420A6040F2FF71C4F200018842EBDDC4
:1025800042F60041C4F20101884205D040F6000144
:10259000C4F20001884206D1816801F007010629D2
:1025A00004BF00207047016841F001010160002074
:1025B000704700007047000070470000002804BF0B
:1025C0000120704710B5044690F83D0028B900205E
:1025D00084F83C00204600F061F8242084F83D0097
:1025E0002068D4E90212C36823F40053C36003696E
:1025F00023F440531A430261D4E904231143C2680F
:10260000194341F20C639A431143C1604169A269C5
:1026100021F44071114343F60002C4F201029042DA
:10262000416103D0FFF720FA02E000BFFFF730FA64
:102630006268192148439100B0FBF1F048F21F5144
:10264000C5F2EB11A0FB01235A094FF69C73C0F6AB
:10265000FF7302FB0300322303EB0010A0FB010118
:10266000F02303EA5113206803EB0212C1F3431174
:1026700011448160016921F490410161416921F0B7
:102680002A014161C16841F40051C160002020214C
:10269000206484F83D1084F83E1010BD70B586B0FB
:1026A00040F60044C4F20104006804F530510026ED
:1026B0008842049602D006B070BD00BF41F21800F7
:1026C000C4F20200016802AD41F48041016001687A
:1026D00001F4804101910199016841F00801016014
:1026E0000068294600F008000190019840200290FF
:1026F00002200390032005902046FDF751FF802023
:10270000CDE90206204629460496FDF749FF04203C
:10271000C4F20100016841F0E06141F00401016090
:1027200006B070BD70B582B0054690F83E00202816
:102730000ED113460A4600294FF0010418BF002BA2
:1027400002D1204602B070BD95F83C00012803D1AB
:102750000224204602B070BD012085F83C00002410
:1027600022202C63AA62AB852C6485F83E00296880
:10277000A86B43F2A95C43F2F55E43F23D56C0F606
:10278000000CC0F6000EC0F600060431C0E90ACE07
:10279000C0E90C64FDF7A2FE01942868016801916C
:1027A00041680191019985F83C40C16841F480710C
:1027B000C160416941F001014161416941F040015D
:1027C0004161204602B070BD7047000070470000B4
:1027D000FEE700002DE9F04381B004460068904612
:1027E0000268099D42F4807202604269089E99461F
:1027F000D2070F461DD1711C11D0002E00F0D280DF
:10280000FDF7E8FF401BB04200F2CE80206841692E
:10281000C907F5D00DE000BF4169C90709D1416979
:10282000C90706D14169C90704BF41695FEAC1719F
:10283000F2D007F0FE0101614169890738D441698E
:10284000721C01F4806111D049BB002E00F0E880B9
:10285000FDF7C0FF401BB04200F2E48020684169F0
:10286000890725D441694905F2D518E0B9B941690C
:1028700089071DD44169490511D44169890717D4D5
:10288000416949050BD44169890711D4416949055A
:1028900005D4416989070BD441694905E7D5016829
:1028A00041F4007101606FF4806141610420BAE07D
:1028B00000210091014651F8142F00924A680092BD
:1028C000009A0A6812061ED4002E00F08580721C41
:1028D0004DD10A68520500F187800A68120612D4A9
:1028E0000A68520500F180800A6812060BD40A6853
:1028F000520579D40A68120605D40A68520573D4C1
:102900000A681206E5D5B9F1010F43D04FEA182144
:102910000161014651F8142F12063BD4002E5BD002
:10292000721C29D10A6852055ED40A68120631D495
:102930000A68520558D40A6812062BD40A68520550
:1029400052D40A68120625D40A6852054CD40A6883
:102950001206E7D51EE000BFFDF73CFF401BB0426A
:102960003FD82068014651F8142F1206CBD40868CE
:102970004005F1D538E000BF0868400534D4FDF7C4
:1029800029FF401BB0422CD82068014651F8142F73
:102990001206F1D55FFA88F10161002001B0BDE8AF
:1029A000F08300BFFDF716FF00202021206384F88C
:1029B0003D1084F83E00216C41F020012164216823
:1029C00084F83C000868C00544BF4FF400702064E0
:1029D000032001B0BDE8F0830868400504D4FDF78A
:1029E000F9FE202004E000BF6FF48060086004203E
:1029F00000212022216384F83D2084F83E10226CBF
:102A00001043206484F83C10206C042817D12068FF
:102A1000016841F400710160012001B0BDE8F0835C
:102A2000FDF7D8FE202000212022216384F83D20DC
:102A300084F83E10226C1043206484F83C1001207E
:102A400001B0BDE8F083000070B50368044653F898
:102A5000140F400737D40E46F1B1701C24D100BFCB
:102A60001868400532D4186840072CD4186840050F
:102A70002CD41868400726D41868400526D4186856
:102A8000400720D41868400520D4186840074FF04C
:102A9000000048BF70BDE3E71868400516D4FDF795
:102AA00099FE202016E000BF154600BF18684005BB
:102AB0000CD4FDF78FFE401BB042F2D8236853F8C8
:102AC000140F4007F2D5002070BD00BF6FF4806086
:102AD0001860042000212022216384F83D2084F81E
:102AE0003E10226C10432064012084F83C1070BD1D
:102AF0002DE9F04F85B04FF0000841F21800CDF8F5
:102B00001080C4F20200016840F6004441F0100158
:102B100001600168C4F2010401F010010091009904
:102B20000168A4F5806541F0200101600168002280
:102B300001F020010091009901684FF4706B41F0A1
:102B400008010160016801F0080100910099016825
:102B500041F00401016000684FF4706100F004006E
:102B6000009000982846FDF72FFE204608210122FC
:102B70000127FDF729FE2046102100224FF0100A00
:102B8000FDF722FE4FF4704001AECDE9010820466A
:102B900031460397FDF704FDCDE901B74FF0020B75
:102BA0004FF0030928463146CDF80CB0CDF810900F
:102BB000FDF7F6FC4FF4805001A981E80109284691
:102BC0003146FDF7EDFC0820CDE9010720463146EE
:102BD000CDE90379FDF7E4FC20463146CDE901A7B4
:102BE000CDE903B9FDF7DCFC05B0BDE8F08F0000CE
:102BF00080B540F2280045F20041C2F20000C4F264
:102C0000000148F2A06200234FF4804CC0F20102A0
:102C100080E80E00C0E9033CC0E90533C0E9073392
:102C2000FDF7DEFD002808BF80BDBDE88040FDF750
:102C30004FBC000080B540F27C0045F60001C2F2B6
:102C40000000C4F2000148F2A06200234FF4804C5F
:102C5000C0F2010280E80E00C0E9033CC0E9053380
:102C6000C0E90733FDF7BCFD002808BF80BDBDE803
:102C70008040FDF72DBC000080B586B040F2D0004A
:102C800042F600420021C2F20000C4F201024723D2
:102C90004FF6FF7C0591CDE90311CDE90011C0E9A4
:102CA0000023C0E9021CC0E904118161FFF732F979
:102CB000002818BFFDF70CFC4FF48050029040F242
:102CC000D000C2F2000002A9FFF7C4F9002818BF23
:102CD000FDF7FEFB40F2D000C2F200006946FFF7AC
:102CE000DBF8002818BFFDF7F3FB06B080BD00003D
:102CF00010B594B040F218100021C2F200004FF05D
:102D00008042472344F61F640E91CDE90C110991CE
:102D1000CDE90711CDE90511CDE90311CDE9011187
:102D2000C0E90023C0E9021401618161FFF7F2F8F4
:102D3000002818BFFDF7CCFB4FF480500B9040F2F9
:102D40001810C2F200000BA9FFF784F9002818BF81
:102D5000FDF7BEFB40F21810C2F20000FFF742FB85
:102D6000002818BFFDF7B4FB40F218100024C2F28F
:102D7000000008A9CDE90844FFF78EF8002818BF25
:102D8000FDF7A6FB6020CDE901040394059440F211
:102D90001814C2F2000401A920460022FFF724FA09
:102DA000002818BFFDF794FB20680021B0F1804F88
:102DB000129101D014B010BD41F21800C4F202000B
:102DC000016841F004010160006810A900F00400EE
:102DD0000F900F984FF40040109002201190139024
:102DE00040F60000C4F20100FDF7DAFB0420C4F253
:102DF000010001684FF6FF42CFF6FF02114041F09B
:102E0000E06141F48071016014B010BD80B540F202
:102E1000601043F60001C2F20000C4F20101002379
:102E20004FF00C0C4FF4165280E80E00C0E903334B
:102E3000C0E905C3C361FFF7C1FB002808BF80BD1F
:102E4000BDE88040FDF744BBFEE70000FEE7000060
:102E50002DE9F04F85B040F2280400254FF480762C
:102E60000127C2F200040DF1120B0DF113084FF00F
:102E7000000900BF09F1B0008DF8100004A8CDE9E9
:102E8000000720467821002201230296FEF710FB5E
:102E90000DF11100CDE90007204678210022012321
:102EA0008DF811500296FEF703FB10208DF81200EA
:102EB0002046782100220123CDE900B70296FEF7D3
:102EC000F7FA4FF0000A00BF204678214022012384
:102ED0008DF81350CDE900870296FEF7E9FA0AF162
:102EE00001004FFA80FABAF1FF3FEDDCB9F1070FAC
:102EF00009F10109BED305B0BDE8F08F80B5C82047
:102F0000FDF73AFBBDE8804000F080BB2DE9F04FB3
:102F100089B040B20D46A2F12001002820EAE072FB
:102F20004FF0100748BF0235A5F1500047EA1214D0
:102F300002F00F07102BCEB240F03A8140F2280881
:102F40008DF818004FF0010B06A8C2F200084FF4EC
:102F50008079CDE9000B4046782100220123CDF88D
:102F60000890FEF7A5FA0DF11900CDE9000B4046D7
:102F70007821002201238DF81940CDF80890FEF742
:102F800097FA0DF11A00CDE9000B40467821002296
:102F900001238DF81A70CDF808904FF48079FEF770
:102FA00087FA43F6A2513001C0F60001085C01EB3C
:102FB00006168DF81B0005970DF11B07404678217A
:102FC00040220123CDE9007BCDF80890FEF770FA8E
:102FD0007078317996F802A0049496F803900391E2
:102FE0008DF81B0040467821402201234FF4807465
:102FF000CDE9007B0294FEF75BFA4046782140223F
:1030000001234FF480748DF81BA0CDE9007B02945E
:10301000FEF74EFA40467821402201238DF81B909E
:10302000CDE9007B0294FEF743FA039878218DF8EE
:103030001B00404640220123CDE9007B0294FEF7AD
:1030400037FA707978218DF81B0040464022012321
:10305000CDE9007B0294FEF72BFAB07978218DF848
:103060001B00404640220123CDE9007B0294FEF77D
:103070001FFAF07978218DF81B0040464022012389
:10308000CDE9007B0294FEF713FAA5F14F008DF80D
:103090001C0007A8CDE9000B40467821002201233F
:1030A0000294FEF705FA049878218DF81D000DF1C1
:1030B0001D00CDE9000B4046002201230294FEF7DB
:1030C000F7F9059878218DF81E000DF11E00CDE965
:1030D000000B4046002201230294FEF7E9F9307A02
:1030E0000DF11F058DF81F00404678214022012375
:1030F000CDE9005B0294FEF7DBF9707A78218DF858
:103100001F00404640220123CDE9005B0294FEF7F8
:10311000CFF9B07A78218DF81F0040464022012374
:10312000CDE9005B0294FEF7C3F9F07A78218DF8BF
:103130001F00404640220123CDE9005B0294FEF7C8
:10314000B7F9307B78218DF81F00404640220123DB
:10315000CDE9005B0294FEF7ABF9707B78218DF826
:103160001F00404640220123CDE9005B02944FF44A
:103170008074FEF79DF9B07B78218DF81F004046E2
:1031800040220123CDE9005B02944FF48074FEF7E6
:103190008FF9F07BCDE9005B8DF81F004046782168
:1031A000402201230294FEF783F909B0BDE8F08FB5
:1031B00040F2280B8DF820004FF0010A08A8C2F257
:1031C000000B4FF48078CDE9000A584678210022A0
:1031D0000123CDF80880FEF76BF90DF12100CDE950
:1031E000000A58467821002201238DF82140CDF8AD
:1031F0000880FEF75DF90DF12200CDE9000A58467E
:103200007821002201238DF82270CDF80880FEF786
:103210004FF943F67A3106EB4600C0F6000111F88B
:10322000102001EB40058DF823200DF123065846B0
:10323000782140220123CDE9006ACDF80880FEF70D
:1032400037F96878AF78EC7895F804908DF823001A
:103250005846782140220123CDE9006ACDF8088044
:10326000FEF726F958467821402201238DF8237075
:10327000CDE9006ACDF80880FEF71AF958467821A2
:10328000402201238DF82340CDE9006ACDF8088063
:10329000FEF70EF958467821402201238DF823903D
:1032A000CDE9006ACDF80880FEF702F96879782147
:1032B0008DF82300584640220123CDE9006ACDF85D
:1032C0000880FEF7F5F809B0BDE8F08F2DE9F04F62
:1032D00087B00646A1F1500040F228058DF8140091
:1032E000012705A8C2F20005144604914FF4807A24
:1032F000CDE900072846782100220123CDF808A057
:10330000FEF7D6F8300900F110080DF11500CDE9EF
:10331000000728467821002201238DF81580CDF87A
:1033200008A0FEF7C5F80DF1160006F00F0BCDE969
:10333000000728467821002201238DF816B0CDF829
:1033400008A0FEF7B5F844F28231C4EB0420C0F6C1
:10335000000101EB40064FF0FF340DF1170900BFEB
:103360003019407878218DF8170028464022012333
:10337000CDE90097CDF808A0FEF79AF801341F2C8C
:10338000EED1049840F228044F388DF818004FF021
:10339000010A06A8C2F200044FF48079CDE9000AC0
:1033A0002046782100220123CDF80890FEF780F80E
:1033B0000DF11900CDE9000A2046782100220123F1
:1033C0008DF81980CDF80890FEF772F80DF11A000B
:1033D000CDE9000A20467821002201238DF81AB099
:1033E000CDF80890FEF764F8FE250DF11B0700BF2D
:1033F0007019407878218DF81B0020464022012367
:10340000CDE9007ACDF80890FEF752F80135B5F510
:103410008F7FEDD107B0BDE8F08F00002DE9F04FB0
:1034200085B0002B049103907CD00E981C46450873
:10343000981E009058421746591E4FF000085FFA38
:1034400080FB42F2107900264FF0000A02910192AF
:1034500012E000BF0126039940F0300205FB08117D
:103460000E9BC8B20499D2B2FFF750FD08F10108D3
:10347000A0450AF1010A55D06FEA0A00C0B25845CA
:1034800002D101202AE000BF00996FEA0800A1EBF9
:103490000801C9B2032900EB040101D2012009E0AF
:1034A00001F0FC02002301200433DFB2974200FB4D
:1034B00009F0F9D1019F11F003010FD0012903D1C7
:1034C00000EB8000400009E04FF47A724243022989
:1034D0004FF0640108BF00FB01F21046B7FBF0F0AB
:1034E0004CF6CD41CCF6CC41A0FB0112D10801EB4A
:1034F0008101002EA0EB4100ADD102994145AADD2A
:103500000028A7D10398049905FB08000E9BC0B2C0
:103510002022FFF7FBFC002608F10108A0450AF174
:10352000010AA9D105B0BDE8F08F00007047000086
:1035300070470000FEF714B970470000406A016848
:103540004A6990F83D30212B0BD112F0800208D04F
:103550000022C284CA6822F0C002CA60202280F819
:103560003D204A6990F83E30222B17D112F04002DC
:1035700014D00022C285CB6823F49073CB604B69D2
:1035800023F001034B61036B012B03D1CB6823F0C4
:103590001003CB60202180F83E100263016C41F0E3
:1035A00010010164FFF708B80168406A09688906DC
:1035B00018D40021C1850168CA6822F48072CA60EB
:1035C0004A6922F001024A614A6922F040024A61D6
:1035D000202280F83E20026B012A03D1CA6822F023
:1035E0001002CA60016B012918BFFFF7EDB8818D89
:1035F000FEF7E0BF406A016B012918BFFFF7E6B88C
:10360000818D4908FEF7D6BFFEE70000F0B583B014
:1036100040F2280440F20807C2F200044FF480751B
:103620000126C2F200072046782100220123CDE9BD
:1036300000760295FDF73CFF781CCDE90006204698
:103640007821002201230295FDF732FFB81CCDE955
:10365000000620467821002201230295FDF728FF6D
:10366000F81CCDE9000620467821002201230295AE
:10367000FDF71EFF381DCDE9000620467821002207
:1036800001230295FDF714FF781DCDE900062046C1
:103690007821002201230295FDF70AFFB81DCDE92C
:1036A000000620467821002201230295FDF700FF45
:1036B000F81DCDE90006204678210022012302955D
:1036C000FDF7F6FE07F10800CDE900062046782157
:1036D000002201230295FDF7EBFE07F10900CDE979
:1036E000000620467821002201230295FDF7E0FE26
:1036F00007F10A00CDE900062046782100220123C7
:103700000295FDF7D5FE07F10B00CDE90006204636
:103710007821002201230295FDF7CAFE07F10C0073
:10372000CDE9000620467821002201230295FDF70D
:10373000BFFE07F10D00CDE90006204678210022EA
:1037400001230295FDF7B4FE07F10E00CDE9000656
:1037500020467821002201230295FDF7A9FE07F1FA
:103760000F00CDE9000620467821002201230295B2
:10377000FDF79EFE07F11000CDE9000620467821F6
:10378000002201230295FDF793FE07F11100CDE918
:10379000000620467821002201230295FDF788FECD
:1037A00007F11200CDE9000620467821002201230E
:1037B0000295FDF77DFE07F11300CDE900062046D6
:1037C0007821002201230295FDF772FE07F1140013
:1037D000CDE9000620467821002201230295FDF75D
:1037E00067FE07F11500CDE900062046782100228A
:1037F00001230295FDF75CFE07F11600CDE90006F6
:1038000020467821002201230295FDF751FE07F1A1
:103810001700CDE9000620467821002201230295F9
:10382000FDF746FE07F11800CDE900062046782195
:10383000002201230295FDF73BFE07F11900CDE9B7
:10384000000620467821002201230295FDF730FE74
:1038500007F11A00CDE90006204678210022012355
:103860000295FDF725FE03B0F0BD000092B00024E4
:10387000ADF80A408DF80940FDF780FF0120CDE941
:103880000D44CDE90B4408900C904FF4E0104FF438
:1038900080310225119008A8CDE90914CDE90F5116
:1038A000FEF70AF920B1EFF3108072B6FEE700BF11
:1038B0000F20CDE903054FF48060CDE9060403A88D
:1038C00002210594FDF7F0FF20B1EFF3108072B6EE
:1038D000FEE700BF40F6004BC4F2010BFFF708F90A
:1038E000FFF786F9FFF7C8F9FFF790FAFFF700FA3C
:1038F000FFF7A0F9FFF702FBFFF7AAFA1820002153
:1039000000220026FFF7E2FC282000210122FFF719
:10391000DDFC382000210222FFF7D8FC48200021DE
:103920000322FFF7D3FC582000210422FFF7CEFC2E
:10393000002004210522FFF7C9FC102004210622E3
:103940004FF0100AFFF7C2FC202004213A22102376
:10395000FFF7DCFA002006210B22FFF7B7FC10204E
:1039600006210C22FFF7B2FC202006210D22FFF7D2
:10397000ADFC302006213A221023FFF7C7FA40F2AF
:103980001815C2F2000528460021FEF7A3FD40F2FB
:103990006014C2F2000400274FF0000802E000BFEC
:1039A0004046BDE020460DF109010122FEF7BAFEB6
:1039B0009DF8099058464FF40041FCF7FFFEF8B11E
:1039C000F00723D1302004210722FFF77FFC40209D
:1039D00004210822FFF77AFC38460021FCF711FC8D
:1039E000002847D144F200013846C4F21C51FCF7CC
:1039F00016FC00283ED13846FCF735FC38E000BF05
:103A00003220FCF7B9FD0136F007DBD0302004216D
:103A10000922FFF75BFC402004210A22FFF756FC35
:103A200058464FF48041FCF7C9FE48B158464FF460
:103A30000051FCF7C3FEC8B94FF60C6A02E000BFA4
:103A40004FF4FA7A3220FCF797FD1FFA88F040F61F
:103A5000C51140F2601440F21815884238BFD044B6
:103A60004FF0100AC2F20004C2F200051FFA88F0FB
:103A7000296848632020FCF713FDC820FCF77CFD73
:103A80000DF10A00FCF7FAFC30B90DF10A00FCF761
:103A9000E3FCFCF7D2FB07463846FCF7E4FB0246A2
:103AA000402006210423CDF800A0FFF7B7FC6820D2
:103AB00006214C221023FFF729FA702006217522D7
:103AC0001023FFF723FA7820062178221023FFF72E
:103AD0001DFAABF580604FF48051FCF76FFE0128B2
:103AE00003D1286840F6C4114163A9F130010429CB
:103AF00010D80020DFE801F014180E1C040000BFED
:103B00001FFA88F040F6C511884238BFA8F5FA7848
:103B100046E700BF4FF47A70FCF72EFD42E700BF86
:103B2000296880B24863F5E740F6C410F8E700BFA3
:103B30001FFA88F040F6C511884238BF08F5FA78B8
:103B40002EE702E008C8121F08C1002AFAD1704708
:103B50007047002001E001C1121F002AFBD170470D
:103B6000010200000000000000000102030406073B
:103B7000080900000000010203040000000000002A
:103B80000000002F000000000700070000147F1451
:103B90007F1400242A7F2A1200626408132300364F
:103BA0004955225000000503000000001C2241007E
:103BB000000041221C000014083E08140008083EC2
:103BC0000808000000A060000008080808080000BD
:103BD00060600000002010080402003E5149453E8C
:103BE0000000427F400000426151494600214145AA
:103BF0004B31001814127F10002745454539003C11
:103C00004A494930000171090503003649494936DE
:103C100000064949291E00003636000000005636CD
:103C200000000008142241000014141414140000B1
:103C30004122140800020151090600324959513E3F
:103C4000007C1211127C007F49494936003E4141F7
:103C50004122007F4141221C007F49494941007FA8
:103C600009090901003E4149497A007F0808087F97
:103C70000000417F4100002040413F01007F0814C7
:103C80002241007F40404040007F020C027F007FC5
:103C90000408107F003E4141413E007F09090906AA
:103CA000003E4151215E007F0919294600464949DD
:103CB00049310001017F0101003F4040403F001FAA
:103CC0002040201F003F4038403F00631408146329
:103CD00000070870080700615149454300007F4113
:103CE000410000552A552A55000041417F0000043B
:103CF0000201020400404040404000000102040074
:103D0000002054545478007F4844443800384444D8
:103D1000442000384444487F003854545418000864
:103D20007E0901020018A4A4A47C007F0804047882
:103D30000000447D4000004080847D00007F10280A
:103D400044000000417F4000007C04180478007C9F
:103D50000804047800384444443800FC242424181F
:103D60000018242418FC007C08040408004854545B
:103D7000542000043F444020003C4040207C001C74
:103D80002040201C003C4030403C00442810284487
:103D9000001CA0A0A07C004464544C4414141414CF
:103DA00014140000000000000000000000000000EB
:103DB0000000000000F800000000000000333000A8
:103DC000000000100C06100C0600000000000000AF
:103DD000000040C07840C0784000043F04043F0425
:103DE0000400007088FC08300000001820FF211E2D
:103DF0000000F008F000E018000000211C031E2164
:103E00001E0000F00888700000001E2123241927DE
:103E1000211010160E00000000000000000000003D
:103E20000000000000E01804020000000007182055
:103E3000400000020418E0000000004020180700C5
:103E40000000404080F0804040000202010F01026B
:103E50000200000000F0000000000101011F01014C
:103E60000100000000000000000080B070000000B1
:103E7000000000000000000000000001010101013D
:103E800001010000000000000000003030000000D0
:103E900000000000000080601804006018060100A7
:103EA000000000E010080810E000000F10202010B3
:103EB0000F00001010F8000000000020203F20201C
:103EC00000000070080808887000003028242221B3
:103ED0003000003008888848300000182020201169
:103EE0000E000000C02010F8000000070424243F4A
:103EF000240000F8088888080800001921202011F3
:103F00000E0000E0108888180000000F112020111A
:103F10000E0000380808C83808000000003F000004
:103F200000000070880808887000001C22212122EF
:103F30001C0000E010080810E000000031222211EF
:103F40000F00000000C0C000000000000030300082
:103F50000000000000800000000000008060000001
:103F6000000000008040201008000001020408103A
:103F70002000404040404040400004040404040449
:103F800004000008102040800000002010080402F7
:103F90000100007048080808F000000000303601F9
:103FA0000000C030C828E810E000071827242314B8
:103FB0000B000000C038E0000000203C2302022774
:103FC000382008F8888888700000203F20202011C1
:103FD0000E00C030080808083800071820202010FC
:103FE000080008F808080810E000203F20202010F2
:103FF0000F0008F88888E8081000203F20202320C0
:10400000180008F88888E8081000203F2000030006
:104010000000C03008080838000007182020221EC1
:10402000020008F808000008F808203F21010121DB
:104030003F20000808F8080800000020203F20204A
:10404000000000000808F8080800C08080807F0099
:10405000000008F888C028180800203F20012638F2
:10406000200008F8080000000000203F2020202049
:10407000300008F8F800F8F80800203F003F003F43
:10408000200008F830C00008F808203F200007187A
:104090003F00E01008080810E0000F10202020105A
:1040A0000F0008F808080808F000203F210101016E
:1040B0000000E01008080810E0000F182424385011
:1040C0004F0008F8888888887000203F2000030C83
:1040D000302000708808080838000038202121228C
:1040E0001C00180808F8080818000000203F2000ED
:1040F000000008F808000008F808001F2020202011
:104100001F000878880000C83808000007380E0132
:104110000000F80800F80008F800033C0700073C1E
:104120000300081868808068180820302C03032CCE
:1041300030200838C800C83808000000203F2000A0
:10414000000010080808C838080020382621202060
:104150001800000000FE020202000000007F404044
:104160004000000C30C000000000000000010638D4
:10417000C00000020202FE000000004040407F003C
:104180000000000004020202040000000000000021
:10419000000000000000000000008080808080801F
:1041A0008080000202040000000000000000000007
:1041B000000000008080808000000019242222225C
:1041C0003F2008F8008080000000003F11202011EF
:1041D0000E000000008080800000000E11202020D2
:1041E0001100000000808088F800000E11202010CF
:1041F0003F200000808080800000001F22222222B9
:104200001300008080F0888888180020203F20203C
:1042100000000000808080808000006B9494949364
:10422000600008F8008080800000203F210000200E
:104230003F2000809898000000000020203F2020B0
:104240000000000000809898000000C08080807FFF
:10425000000008F8000080808000203F24022D30FC
:104260002000000808F8000000000020203F202067
:1042700000008080808080808000203F20003F20E0
:10428000003F8080008080800000203F21000020CF
:104290003F200000808080800000001F2020202020
:1042A0001F00808000808000000080FFA12020117E
:1042B0000E000000008080808000000E112020A0F1
:1042C000FF80808080008080800020203F212000AF
:1042D000010000008080808080000033242424249A
:1042E0001900008080E0808000000000001F202076
:1042F00000008080000000808000001F202020102F
:104300003F20808080000080808000010E30080601
:10431000010080800080008080800F300C030C3012
:104320000F0000808000808080000020312E0E3140
:104330002000808080000080808080818E70180640
:10434000010000808080808080000021302C2221AC
:10435000300000000000807C020200000000003FEE
:1043600040400002027C800000000040403F00000E
:10437000000000000000FF00000000000000FF003F
:1043800000000404E4040FF40404F444CF4444445F
:104390000400000000000000000000000000000019
:1043A000000000000000000000000000000000000D
:1043B00000000000000000000000000000000000FD
:1043C00000000000000000000000000000000000ED
:1043D00000000000000000000000000000000000DD
:1043E00000000000000000000000000000000000CD
:1043F00000000000000000000000000000000000BD
:1044000000000000000000000000000000000000AC
:10441000000000000000000000000000000000009C
:10442000000000000000000000000000000000008C
:10443000000000000000000000000000000000007C
:10444000000000000000000000000000000000006C
:10445000000000000000000000000000000000005C
:10446000000000000000000000000000000000004C
:10447000000000000000000000000000000000003C
:104480000040407D44447D4445447C44457C40405C
:10449000000000000000000000000000000000001C
:1044A000000000000000000000000000000000000C
:1044B00000000000000000000000000000000000FC
:1044C00000000000000000000000000000000000EC
:1044D00000000000000000000000000000000000DC
:1044E00000000000000000000000000000000000CC
:1044F00000000000000000000000000000000000BC
:1045000000000000000000000000000000000000AB
:10451000000000000000000000000000000000009B
:10452000000000000000000000000000000000008B
:10453000000000000000000000000000000000007B
:10454000000000000000000000000000000000006B
:10455000000000000000000000000000000000005B
:10456000000000000000000000000000000000004B
:10457000000000000000000000000000000000003B
:104580000000C2B28282828282FE828282828000A7
:10459000000000000000000000000000000000001B
:1045A000000000000000000000000000000000000B
:1045B00000000000000000000000000000000000FB
:1045C00000000000000000000000000000000000EB
:1045D00000000000000000000000000000000000DB
:1045E00000000000000000000000000000000000CB
:1045F00000000000000000000000000000000000BB
:1046000000000000000000000000000000000000AA
:10461000000000000000000000000000000000009A
:10462000000000000000000000000000000000008A
:10463000000000000000000000000000000000007A
:10464000000000000000000000000000000000006A
:10465000000000000000000000000000000000005A
:10466000000000000000000000000000000000004A
:10467000000000000000000000000000000000003A
:1046800020201008040241807F000000000000008C
:10469000000000000000000000000000000000001A
:1046A000000000000000000000000000000000000A
:1046B00000000000000000000000000000000000FA
:1046C00000000000000000000000000000000000EA
:1046D00000000000000000000000000000000000DA
:1046E00000000000000000000000000000000000CA
:1046F00000000000000000000000000000000000BA
:1047000000000000000000000000000000000000A9
:104710000000000000000000000000000000000099
:104720000000000000000000000000000000000089
:104730000000000000000000000000000000000079
:104740000000000000000000000000000000000069
:104750000000000000000000000000000000000059
:104760000000000000000000000000000000000049
:104770000000000000000000000000000000109495
:1047800053321E325210007E4242427E0000000030
:104790000000000000000000000000000000000019
:1047A0000000000000000000000000000000000009
:1047B00000000000000000000000000000000000F9
:1047C00000000000000000000000000000000000E9
:1047D00000000000000000000000000000000000D9
:1047E00000000000000000000000000000000000C9
:1047F00000000000000000000000000000000000B9
:1048000000000000000000000000000000000000A8
:104810000000000000000000000000000000000098
:104820000000000000000000000000000000000088
:104830000000000000000000000000000000000078
:104840000000000000000000000000000000000068
:104850000000000000000000000000000000000058
:104860000000000000000000000000000000000048
:104870000000000000000000000000000000000038
:10488000FF49494949494949FF000000000000002B
:104890000000000000000000000000000000000018
:1048A0000000000000000000000000000000000008
:1048B00000000000000000000000000000000000F8
:1048C00000000000000000000000000000000000E8
:1048D00000000000000000000000000000000000D8
:1048E00000000000000000000000000000000000C8
:1048F00000000000000000000000000000000000B8
:1049000000000000000000000000000000000000A7
:104910000000000000000000000000000000000097
:104920000000000000000000000000000000000087
:104930000000000000000000000000000000000077
:104940000000000000000000000000000000000067
:104950000000000000000000000000000000000057
:104960000000000000000000000000000000000047
:1049700000000000000000000000000008CC4A49D0
:10498000484ACC18007F88888482E000000000003C
:104990000000000000000000000000000000000017
:1049A0000000000000000000000000000000000007
:1049B00000000000000000000000000000000000F7
:1049C00000000000000000000000000000000000E7
:1049D00000000000000000000000000000000000D7
:1049E00000000000000000000000000000000000C7
:1049F00000000000000000000000000000000000B7
:104A000000000000000000000000000000000000A6
:104A10000000000000000000000000000000000096
:104A20000000000000000000000000000000000086
:104A30000000000000000000000000000000000076
:104A40000000000000000000000000000000000066
:104A50000000000000000000000000000000000056
:104A60000000000000000000000000000000000046
:104A7000000000000000000000000000FF121252C1
:104A8000927F00007E88888482E0000000000000A1
:104A90000000000000000000000000000000000016
:104AA0000000000000000000000000000000000006
:104AB00000000000000000000000000000000000F6
:104AC00000000000000000000000000000000000E6
:104AD00000000000000000000000000000000000D6
:104AE00000000000000000000000000000000000C6
:104AF00000000000000000000000000000000000B6
:104B000000000000000000000000000000000000A5
:104B10000000000000000000000000000000000095
:104B20000000000000000000000000000000000085
:104B30000000000000000000000000000000000075
:104B40000000000000000000000000000000000065
:104B50000000000000000000000000000000000055
:104B60000000000000000000000000000000000045
:104B700000000000000000000000807000FF201016
:104B800004040404FC040404040000000000000009
:104B90000000000000000000000000000000000015
:104BA0000000000000000000000000000000000005
:104BB00000000000000000000000000000000000F5
:104BC00000000000000000000000000000000000E5
:104BD00000000000000000000000000000000000D5
:104BE00000000000000000000000000000000000C5
:104BF00000000000000000000000000000000000B5
:104C000000000000000000000000000000000000A4
:104C10000000000000000000000000000000000094
:104C20000000000000000000000000000000000084
:104C30000000000000000000000000000000000074
:104C40000000000000000000000000000000000064
:104C50000000000000000000000000000000000054
:104C60000000000000000000000000000000000044
:104C700000000000000000000080601807083000FD
:104C80000040807F000000000000000000000000E5
:104C90000000000000000000000000000000000014
:104CA0000000000000000000000000000000000004
:104CB00000000000000000000000000000000000F4
:104CC00000000000000000000000000000000000E4
:104CD00000000000000000000000000000000000D4
:104CE00000000000000000000000000000000000C4
:104CF00000000000000000000000000000000000B4
:104D000000000000000000000000000000000000A3
:104D10000000000000000000000000000000000093
:104D20000000000000000000000000000000000083
:104D30000000000000000000000000000000000073
:104D40000000000000000000000000000000000063
:104D50000000000000000000000000000000000053
:104D60000000000000000000000000000000000043
:104D700000000000000000001010D0FF9014E4AF0D
:104D8000A4A4A4AFE40400000000000000000000A0
:104D90000000000000000000000000000000000013
:104DA0000000000000000000000000000000000003
:104DB00000000000000000000000000000000000F3
:104DC00000000000000000000000000000000000E3
:104DD00000000000000000000000000000000000D3
:104DE00000000000000000000000000000000000C3
:104DF00000000000000000000000000000000000B3
:104E000000000000000000000000000000000000A2
:104E10000000000000000000000000000000000092
:104E20000000000000000000000000000000000082
:104E30000000000000000000000000000000000072
:104E40000000000000000000000000000000000062
:104E50000000000000000000000000000000000052
:104E60000000000000000000000000000000000042
:104E700000000000000000040300FF00894B2A1A14
:104E80000E1A2A4B8880000000000000000000007D
:104E90000000000000000000000000000000000012
:104EA0000000000000000000000000000000000002
:104EB00000000000000000000000000000000000F2
:104EC00000000000000000000000000000000000E2
:104ED00000000000000000000000000000000000D2
:104EE00000000000000000000000000000000000C2
:104EF00000000000000000000000000000000000B2
:104F000000000000000000000000000000000000A1
:104F10000000000000000000000000000000000091
:104F20000000000000000000000000000000000081
:104F30000000000000000000000000000000000071
:104F40000000000000000000000000000000000061
:104F50000000000000000000000000000000000051
:104F60000000000000000000000000000000000041
:104F7000000000000000101090909090901010FF22
:104F800010101116100000000000000000000000CA
:104F90000000000000000000000000000000000011
:104FA0000000000000000000000000000000000001
:104FB00000000000000000000000000000000000F1
:104FC00000000000000000000000000000000000E1
:104FD00000000000000000000000000000000000D1
:104FE00000000000000000000000000000000000C1
:104FF00000000000000000000000000000000000B1
:1050000000000000000000000000000000000000A0
:105010000000000000000000000000000000000090
:105020000000000000000000000000000000000080
:105030000000000000000000000000000000000070
:105040000000000000000000000000000000000060
:105050000000000000000000000000000000000050
:105060000000000000000000000000000000000040
:105070000000000000002060203F10101000030C12
:10508000102040F8000000000000000000000000B8
:105090000000000000000000000000000000000010
:1050A0000000000000000000000000000000000000
:1050B00000000000000000000000000000000000F0
:1050C00000000000000000000000000000000000E0
:1050D00000000000000000000000000000000000D0
:1050E00000000000000000000000000000000000C0
:1050F00000000000000000000000000000000000B0
:10510000000000000000000000000000000000009F
:10511000000000000000000000000000000000008F
:10512000000000000000000000000000000000007F
:10513000000000000000000000000000000000006F
:10514000000000000000000000000000000000005F
:10515000000000000000000000000000000000004F
:10516000000000000000000000000000000000003F
:1051700000000000000000F8888C8A89888888F880
:10518000000000000000000000000000000000001F
:10519000000000000000000000000000000000000F
:1051A00000000000000000000000000000000000FF
:1051B00000000000000000000000000000000000EF
:1051C00000000000000000000000000000000000DF
:1051D00000000000000000000000000000000000CF
:1051E00000000000000000000000000000000000BF
:1051F00000000000000000000000000000000000AF
:10520000000000000000000000000000000000009E
:10521000000000000000000000000000000000008E
:10522000000000000000000000000000000000007E
:10523000000000000000000000000000000000006E
:10524000000000000000000000000000000000005E
:10525000000000000000000000000000000000004E
:10526000000000000000000000000000000000003E
:10527000000000000000FF44444444444444FF0054
:10528000000000000000000000000000000000001E
:10529000000000000000000000000000000000000E
:1052A00000000000000000000000000000000000FE
:1052B00000000000000000000000000000000000EE
:1052C00000000000000000000000000000000000DE
:1052D00000000000000000000000000000000000CE
:1052E00000000000000000000000000000000000BE
:1052F00000000000000000000000000000000000AE
:10530000000000000000000000000000000000009D
:10531000000000000000000000000000000000008D
:10532000000000000000000000000000000000007D
:10533000000000000000000000000000000000006D
:10534000000000000000000000000000000000005D
:10535000000000000000000000000000000000004D
:10536000000000000000000000000000000000003D
:1053700000004044C4444444401010FF101010F09A
:10538000000000000000000000000000000000001D
:10539000000000000000000000000000000000000D
:1053A00000000000000000000000000000000000FD
:1053B00000000000000000000000000000000000ED
:1053C00000000000000000000000000000000000DD
:1053D00000000000000000000000000000000000CD
:1053E00000000000000000000000000000000000BD
:1053F00000000000000000000000000000000000AD
:10540000000000000000000000000000000000009C
:10541000000000000000000000000000000000008C
:10542000000000000000000000000000000000007C
:10543000000000000000000000000000000000006C
:10544000000000000000000000000000000000005C
:10545000000000000000000000000000000000004C
:10546000000000000000000000000000000000003C
:1054700000103C131014B840300E014080403F0033
:10548000000000000000000000000000000000001C
:10549000000000000000000000000000000000000C
:1054A00000000000000000000000000000000000FC
:1054B00000000000000000000000000000000000EC
:1054C00000000000000000000000000000000000DC
:1054D00000000000000000000000000000000000CC
:1054E00000000000000000000000000000000000BC
:1054F00000000000000000000000000000000000AC
:10550000000000000000000000000000000000009B
:10551000000000000000000000000000000000008B
:10552000000000000000000000000000000000007B
:10553000000000000000000000000000000000006B
:10554000000000000000000000000000000000005B
:10555000000000000000000000000000000000004B
:10556000000000000000000000000000000000003B
:1055700000002424242424FC2222222322000000D0
:10558000000000000000000000000000000000001B
:10559000000000000000000000000000000000000B
:1055A00000000000000000000000000000000000FB
:1055B00000000000000000000000000000000000EB
:1055C00000000000000000000000000000000000DB
:1055D00000000000000000000000000000000000CB
:1055E00000000000000000000000000000000000BB
:1055F00000000000000000000000000000000000AB
:10560000000000000000000000000000000000009A
:10561000000000000000000000000000000000008A
:10562000000000000000000000000000000000007A
:10563000000000000000000000000000000000006A
:10564000000000000000000000000000000000005A
:10565000000000000000000000000000000000004A
:105660000000000000000000000000000000000238
:105670000202020242827F020202020202020000D1
:10568000000000000000000000000000000000001A
:10569000000000000000000000000000000000000A
:1056A00000000000000000000000000000000000FA
:1056B00000000000000000000000000000000000EA
:1056C00000000000000000000000000000000000DA
:1056D00000000000000000000000000000000000CA
:1056E00000000000000000000000000000000000BA
:1056F00000000000000000000000000000000000AA
:105700000000000000000000000000000000000099
:105710000000000000000000000000000000000089
:105720000000000000000000000000000000000079
:105730000000000000000000000000000000000069
:105740000000000000000000000000000000000059
:105750000000000000000000000000000000000049
:1057600000000000000000000000000000004044B5
:10577000C4444444401010FF101010F0000000001A
:105780000000000000000000000000000000000019
:105790000000000000000000000000000000000009
:1057A00000000000000000000000000000000000F9
:1057B00000000000000000000000000000000000E9
:1057C00000000000000000000000000000000000D9
:1057D00000000000000000000000000000000000C9
:1057E00000000000000000000000000000000000B9
:1057F00000000000000000000000000000000000A9
:105800000000000000000000000000000000000098
:105810000000000000000000000000000000000088
:105820000000000000000000000000000000000078
:105830000000000000000000000000000000000068
:105840000000000000000000000000000000000058
:105850000000000000000000000000000000000048
:1058600000000000000000000000000000103C13D9
:105870001014B840300E014080403F00000000008E
:105880000000000000000000000000000000000018
:105890000000000000000000000000000000000008
:1058A00000000000000000000000000000000000F8
:1058B00000000000000000000000000000000000E8
:1058C00000000000000000000000000000000000D8
:1058D00000000000000000000000000000000000C8
:1058E00000000000000000000000000000000000B8
:1058F00000000000000000000000000000000000A8
:105900000000000000000000000000000000000097
:105910000000000000000000000000000000000087
:105920000000000000000000000000000000000077
:105930000000000000000000000000000000000067
:105940000000000000000000000000000000000057
:105950000000000000000000000000000000000047
:105960000000000000000000000000004040424431
:1059700058C0407F40C050484640400000000000F2
:105980000000000000000000000000000000000017
:105990000000000000000000000000000000000007
:1059A00000000000000000000000000000000000F7
:1059B00000000000000000000000000000000000E7
:1059C00000000000000000000000000000000000D7
:1059D00000000000000000000000000000000000C7
:1059E00000000000000000000000000000000000B7
:1059F00000000000000000000000000000000000A7
:105A00000000000000000000000000000000000096
:105A10000000000000000000000000000000000086
:105A20000000000000000000000000000000000076
:105A30000000000000000000000000000000000066
:105A40000000000000000000000000000000000056
:105A50000000000000000000000000000000000046
:105A600000000000000000000000008080402018BE
:105A7000070000003F404040407800000000000068
:105A80000000000000000000000000000000000016
:105A90000000000000000000000000000000000006
:105AA00000000000000000000000000000000000F6
:105AB00000000000000000000000000000000000E6
:105AC00000000000000000000000000000000000D6
:105AD00000000000000000000000000000000000C6
