:020000040800F2
:100000007005002001010008CD1B000895180008AC
:10001000C91B000849010008E11B0008000000009E
:10002000000000000000000000000000D51B0008D8
:100030004D01000800000000D11B0008D91B00087A
:100040001B0100081B0100081B0100081B01000820
:100050001B0100081B0100081B0100081B01000810
:100060001B0100081B0100081B0100081B01000800
:100070001B0100081B0100081B0100081B010008F0
:100080001B0100081B0100081B0100081B010008E0
:100090001B0100081B0100081B0100081B010008D0
:1000A0001B0100081B0100081B0100081B010008C0
:1000B0001B0100081B0100081B0100081B010008B0
:1000C0001B0100081B0100081B0100081B010008A0
:1000D0001B0100081B0100081B0100081B01000890
:1000E0001B0100081B0100081B010008DFF80CD0F1
:1000F00000F018F800480047E51B000870050020D4
:100100000648804706480047FEE7FEE7FEE7FEE7B1
:10011000FEE7FEE7FEE7FEE7FEE7FEE7DD1B000881
:10012000ED000008064C074D06E0E06840F00103D2
:1001300094E8070098471034AC42F6D3FFF7DAFF93
:10014000CC1C0008EC1C0008FEE700007047000013
:10015000EFF3108072B600BFFEE7000010B581B06B
:100160000022009290F82420012A03D1022108469F
:1001700001B010BD4B680122062B80F8242017D84F
:10018000D0F800C003EB83035A1F1F23DCF834E0D0
:1001900003FA02F40B682EEA040403FA02F2224383
:1001A000CCF83420092B03EB430219D936E000BF09
:1001B000D0F800C00C2B03EB83021DD8233A1F2379
:1001C000DCF830E003FA02F40B682EEA040403FAC8
:1001D00002F22243CCF83020092B03EB43021DD856
:1001E000DCF81030072489689440A34391401943F8
:1001F000CCF81010002130E0413A1F23DCF82CE04D
:1002000003FA02F40B682EEA040403FA02F2224312
:10021000CCF82C20092B03EB4302E1D9DCF80CE0ED
:100220001E3A0724896894402EEA0404914023F082
:1002300001022143102ACCF80C100DD142F20841E2
:10024000C4F20101A1F1080294450DD0816A41F088
:1002500020018162012100E00021002280F8242099
:10026000084601B010BD00BF0A68120230D40A6807
:10027000102B42F400020A602CD140F20801C2F2B5
:10028000000109684DF68362C4F21B32A1FB021221
:10029000910C01EB8101490000910099E1B10099B5
:1002A000013900910099C9B1009901390091009973
:1002B000B1B1009901390091009999B100990139C2
:1002C0000091009900294FF00001E8D1C5E700BF77
:1002D0000021C2E70021C0E70021BEE70021BCE702
:1002E0000021BAE70021B8E7B0B5002800F0A880E7
:1002F0000446806A20B121688868C0070BD114E0E9
:100300000020E06284F82400204600F09BF8216879
:100310008868C00709D0886820F00100886000F074
:10032000D7F921688A68D20726D1A06AC0063AD4D4
:10033000A06A41F2021290430230A062E069D4E95F
:10034000013240EA030C531EB3FA83F35D091346EE
:10035000B2F5807F18BF2B02207D257B01284CEA57
:10036000450030D135B3A56A45F02005A562E56AA0
:1003700045F00105E56226E0054602E08868C00711
:10038000D3D000F0A5F9401B21680328F6D3886874
:10039000C007F3D0A06A40F01000A062E06A40F00D
:1003A0000100E062A06AA06A40F01000A062012093
:1003B000B0BD00BFD4F818C04EF60005CFF6FF75EB
:1003C00005EB4C352B434D68B2F5807F25F469452C
:1003D00043EA05034B608B684FF2FD75CFF6E1757C
:1003E00003EA050343EA00038B6001D0012A07D129
:1003F00022690023CFF6F07303EB025201E000BF45
:100400000022CB6A23F470031A43CA62896840F65B
:10041000FE62CFF61F721140814207D10020E062D8
:10042000A16A012262F30101A162B0BDA06A40F09D
:10043000100020F00200A062E06A40F00100E062DB
:100440000120B0BD80B586B0014640F60000C4F280
:100450000100096800F5E05291424FF00001CDE93A
:10046000041101D006B080BD41F21801C4F20201AE
:100470000A6842F400720A600A6802F4007201928B
:10048000019A0A6842F004020A60096801F0040156
:1004900001910199012102910321039102A900F028
:1004A00003F806B080BD00002DE9F04F82B00E6861
:1004B000002E00F0038140F20C4C41F200424FF656
:1004C000FF7EC4F2010CC4F20102042700240123C0
:1004D000C1F2100E4FF0000A4FF00009904208BF21
:1004E0000327009745E000BF012704F00C030F220B
:1004F0009A402BEA020207FA03F34FEA9A051A43DD
:1005000046F82520D1F804B040F20045C4F20105B8
:100510005FEACB322A6854BF22EA080242EA0802A4
:100520002A606A685FEA8B3354BF22EA080242EA13
:1005300008026A605FEACB23AA6854BF22EA080275
:1005400042EA08025FEA8B23AA60DCF800204FF041
:10055000010354BF22EA080242EA0802CCF8002054
:100560000E680AF1010A36FA0AF204F1040400F0F6
:10057000A58003FA0AF816EA080FF1D04E6876450E
:1005800012DC122E56D8DFE806F0350B45495555DA
:1005900055555555555555555555554D510000BF57
:1005A000D1F80C9046E000BF4FF6FF72C1F2210275
:1005B00096420FDC0022C1F2110296421AD00022AC
:1005C000C1F21202964215D00022C1F221029642D7
:1005D00010D02FE00022C1F2220296420AD000225F
:1005E000C1F23102964205D00022C1F23202964297
:1005F00020D100BF8A684AB1012A14BFC0F8148014
:10060000C0F810804FF0080914E000BF4FF0040953
:1006100010E000BFCA6802F108090BE04FF00009C2
:1006200008E000BFCA6802F1040903E0CA6802F1E9
:100630000C0900BF22460646BAF1080F24BF203A33
:10064000043637680F25954027EA050509FA02F2B6
:100650002A433260CA79D2067FF582AF41F218038D
:10066000C4F202031A6842F001021A601A6802F02A
:1006700001020192019A40F20042C4F20102A2F585
:100680007E762AF0030256F802B040F60002C4F269
:100690000102904210D040F60042C4F201029042A2
:1006A0003FF422AF41F20002C4F20102009F9042E7
:1006B00008BF022719E700BF002716E702B0BDE810
:1006C000F08F0000002A08BF090401617047000094
:1006D00040F26810C2F200000068704770B5B8B30D
:1006E000044690F83D0028B9002084F83C002046DC
:1006F00000F0B0F8242084F83D002068016821F063
:1007000001010160016841F400410160016821F4C8
:100710000041016000F0DAFA48F28041C0F21E01A7
:1007200040F60013D4F804E088424FF00001C0F214
:100730003D0348F2A16C4FF0000238BF01219842FE
:10074000C0F2010C38BF0122E64538BF0A460AB1A3
:10075000012070BD4DF68361C4F21B31A0FB011274
:100760002168950C4B684FF4967623F03F0343EADB
:100770009243754344F6D3564B60C1F262060B6A4E
:10078000A5FB0656B50923F03F03E64538BF950C97
:100790006A1C1A430A62CA6948F2A0664CF6FF73E3
:1007A000C0F20106B64522EA03020BD801384FEA2F
:1007B0004E03B0FBF3F001306FF31F30042898BFF5
:1007C00004201EE0A368013863B119230EFB03F374
:1007D000B0FBF3F001306FF31F3078B100F58040CB
:1007E00008E000BF0EEB4E03B0FBF3F001306FF3F7
:1007F0001F3028B100F5004003E000BF012000E0F9
:1008000001201043C8610868D4E9072320F0C00024
:10081000104318430860886848F2FF3204F10C0660
:1008200090434CCE18431043A5698860C86820F0F7
:10083000FF0030432843C860086840F001000860AA
:1008400000202021206484F83D10206384F83E00BD
:1008500070BD000010B586B045F200410068C4F2DA
:10086000000100228842049202D006B010BD00BFF1
:1008700041F21804C4F20204206840F0080020602D
:10088000206800F0080001900198C020029012201A
:1008900003900320059001F5384002A9FFF704FEFC
:1008A000606840F400106060606800F4001001901F
:1008B000019806B010BD000040F2000040F268113F
:1008C000C2F20000C2F2000100780A681044086019
:1008D0007047000080B542F20000C4F202000168D7
:1008E00041F010010160032000F07AF80F2000F0C1
:1008F00005F800F027F8002080BD000070B540F238
:100900000006C2F2000640F208013278C2F200018D
:100910004FF47A730968B3FBF2F20446B1FBF2F1CB
:10092000084600F0D5FB0F2C4FF0010508D838B968
:100930004FF0FF3021460022002500F025F87460BA
:10094000284670BD82B041F21800C4F2020001686E
:10095000022241F001010160016801F001010191F1
:100960000199416841F080514160406800F0805039
:10097000009000980420C4F20100016862F31A613B
:10098000016002B07047000010B54EF60C5CCEF26C
:10099000000CDCF80030C3F3022E8EF00704042CA8
:1009A00028BF0424BEF103034FF0FF3E0EFA04F407
:1009B00038BF0023A14399400EFA03F39A43114331
:1009C00000F00F0200F160430901043A03F56443AB
:1009D0006244002848BF02F10C03197010BD0000EA
:1009E0004EF60C51CEF200010A684FF6FF031A4092
:1009F00060F30A2242F0806040F0FD7008607047AA
:100A00002DE9F04182B00446007841F21C06C0078F
:100A1000C4F202064AD0306810F0805808D130681D
:100A200040F080503060306800F0805001900198B4
:100A300047F20007C4F200073868C00512D43868CE
:100A400040F480703860FFF743FE05463868C00503
:100A500008D4FFF73DFE401B6428F7D9032002B0FD
:100A6000BDE8F081706810F4407012D0616801F444
:100A7000407188420DD0706840F24042C4F2422278
:100A8000012320F4407113600023C00713607160DC
:100A90002AD17068616820F440700843B8F1000FF3
:100AA000706003D1306820F080503060206881078A
:100AB00007D556F8181CA26821F44041114346F8A6
:100AC000181CC00604D4002002B0BDE8F08100BFAD
:100AD00056F8180CE16820F48000084346F8180C1A
:100AE000002002B0BDE8F081FFF7F2FD054641F2BB
:100AF000883700BF70688007CBD4FFF7E9FD401B43
:100B0000B8424FF00300F5D9EBE700002DE9F043C0
:100B100081B0002800F0858042F20008C4F202088B
:100B20000446D8F800000D4600F0070088420CD2B9
:100B3000D8F8000020F007002843C8F80000D8F8D3
:100B4000000000F00700A8426BD1206841F20409C0
:100B50008107C4F2020917D5410705D5D9F800105D
:100B600041F4E061C9F80010010705D5D9F800107B
:100B700041F46051C9F80010D9F80010A26821F0C2
:100B8000F0011143C9F80010C00741D1D8F80000A6
:100B900000F00700A8420CD9D8F8000020F00700A8
:100BA0002843C8F80000D8F8000000F00700A84269
:100BB00037D12068410707D5D9F80010E26821F441
:100BC000E0611143C9F80010000708D5D9F800000A
:100BD000216920F4605040EAC100C9F80000D9F84A
:100BE000002002F00C00082841F20020C0F27A0038
:100BF00050D141F6BA43C2F38341C0F60003595CB9
:100C0000D2033BD440F60010C0F23D00484341E01F
:100C1000606802280AD001282AD159F8041C8903E7
:100C200008D4012001B0BDE8F08300BF59F8041CCE
:100C30008901F6D5D9F8001021F003010843C9F85D
:100C40000000FFF745FD064641F28837D9F800005D
:100C5000616800F00C00B0EB810F97D0FFF738FD12
:100C6000801BB842F2D9032001B0BDE8F08300BF79
:100C700059F8041C8907D4D5DCE700BFD9F8002057
:100C800041F6A043C2F34042C0F600039A5C4843D9
:100C9000B0FBF2F0D9F8001041F6A242C1F3031103
:100CA000C0F60002515C40F2080220FA01F140F265
:100CB0000400C2F200000068C2F200021160FFF7F7
:100CC0001DFE002001B0BDE8F083000040F20800E6
:100CD00041F20401C2F20000C4F202010068096896
:100CE00041F6B242C1F30221C0F60002515CC84095
:100CF0007047000040F2080041F20401C2F2000017
:100D0000C4F202010068096841F6B242C1F3C2218F
:100D1000C0F60002515CC840704700002DE9F04168
:100D200082B0002868D00446007841F20006C0076F
:100D3000C4F2020625D0706800F00C0004281BD015
:100D4000706800F00C00082802D17068C00313D44A
:100D50006068002800F06881B0F5A02F00F07C8169
:100D6000B0F5803F00F07C81306820F48030306046
:100D7000306820F4802076E13068800301D5606817
:100D8000D0B32078800718D5706810F00C0F07D00A
:100D9000706800F00C0008286ED17068C0036BD436
:100DA0003068800702D52069012825D13068616943
:100DB00020F0F80040EAC1003060207800071FD41E
:100DC0002078400732D4E56995B1706800F00C00D6
:100DD000082840F08F80012D0ED07068216A00F441
:100DE00080328A4208D1616A00F47010884203D1CF
:100DF000002002B0BDE8F081012002B0BDE8F08122
:100E0000A069002862D00020C4F242200121C0F86D
:100E10008014FFF75DFC0546706A800700F18C8046
:100E2000FFF756FC401B0228F6D92AE1F06910F0C2
:100E3000805808D1F06940F08050F061F06900F00E
:100E400080500090009847F20007C4F2000738680D
:100E5000C00529D4386840F480703860FFF738FC4A
:100E6000054600BF3868C0051ED4FFF731FC401BA3
:100E70006428F7D905E100BF2069002840F200008E
:100E8000C4F2422000F0828001210160FFF720FCC3
:100E9000054600BF306880073FF588AFFFF718FCB4
:100EA000401B0228F6D9ECE0E068002800F08080C2
:100EB000052800F09780012800F09880306A20F023
:100EC00001003062306A20F0040092E00020C4F299
:100ED00042200021C0F88014FFF7FAFB054600BF4E
:100EE000706A80077FF56CAFFFF7F2FB401B0228AA
:100EF000F6D9C6E00027C4F2422700203866FFF783
:100F0000E7FB022D05460BD13068800140F1BE8021
:100F1000FFF7DEFB401B02284FF00300F4D968E71F
:100F2000306880017FF564AFFFF7D2FB401B0228D9
:100F30004FF00300F4D95CE740F20800C2F2000071
:100F4000006844F6D351C1F26201A0FB0101480AD6
:100F5000019000BF00BF0198411E002801913FF49D
:100F60002FAF00BF0198411E002801913FF428AF28
:100F700000BF0198411E002801913FF421AF00BF3E
:100F80000198411E00280191E4D119E70021016078
:100F9000FFF79EFB054600BF306880077FF50DAF69
:100FA000FFF796FB401B02284FF00300F4D920E71F
:100FB000306A20F001003062306A20F004003062B4
:100FC000FFF786FB054641F2883700BF306A80078D
:100FD00020D5FFF77DFB401BB8424FF00300F5D949
:100FE00007E700BF306A40F004003062306A40F02A
:100FF00001003062FFF76CFB054641F2883700BF05
:10100000306A800706D4FFF763FB401BB842F7D96C
:1010100037E000BFB8F1000F7FF4D5AEF06920F0E3
:101020008050F061CFE600BF306820F4803030603F
:10103000306820F480203060FFF74AFB054600BF8F
:10104000306880037FF59DAEFFF742FB401B6428AC
:101050004FF00300F4D9CCE6306840F480203060D3
:10106000306840F480303060FFF732FB054600BF47
:10107000306880033FF585AEFFF72AFB401B6428EC
:10108000F6D9032002B0BDE8F08100BF206AB0F5B8
:10109000803F05D17168A26821F40031114371606D
:1010A0007168626A21F47411114308437060012071
:1010B0003866FFF70DFB0446306880013FF598AEB7
:1010C000FFF706FB001B02284FF00300F4D990E65F
:1010D000411E0020B0EB116F1CBF012070474EF283
:1010E0001002CEF2000251604EF62351CEF2000102
:1010F000F0230B70072190601160704710B590F8D5
:101100003C20012A4FF0020233D080F83D200268D3
:10111000D2F804E0D2F808C00C682EF07003234324
:1011200040F2FF74C4F20004A24253600ADCB2F140
:10113000804F13D040F20043C4F200039A420DD016
:1011400011E000BF42F60043C4F201039A4205D009
:1011500040F60003C4F200039A4204D149682CF01F
:101160008003194391600121002280F83D1080F82E
:101170003C20104610BD0000002804BF012070472D
:1011800010B5044690F83D0028B9002084F83C00D2
:10119000204600F067F8022084F83D00206840F205
:1011A000FF730268C4F2000342F6004C9842C4F296
:1011B000010C15DCB0F1804F1AD040F20041C4F2AE
:1011C0000001884214D0984218DCB0F1804F1DD045
:1011D00040F20041C4F20001884217D01AE000BF7B
:1011E000604505D040F60001C4F200018842EAD112
:1011F000A16822F070020A439842E6DD604505D0FE
:1012000040F60001C4F20001884203D1216922F4B2
:1012100040720A43A36922F08001D4F804E0E26836
:10122000194360450160C262C0F828E002D16169DB
:10123000CCF8301001214161002084F8461084F878
:101240003E1084F83F1084F8401084F8411084F870
:10125000421084F8431084F8441084F8451084F850
:101260003D1010BD82B00068B0F1804F14D042F63E
:101270000041C4F2010188421BD141F21800C4F2BE
:101280000200016841F400610160006800F4006040
:101290000190019802B0704741F21800C4F20200B8
:1012A000416841F001014160406800F00100009098
:1012B000009802B07047000080B590F83C20012AE9
:1012C0004FF0020200F0BF8080F83D20D0F800C04F
:1012D0004FF67772DCF8083023EA0202CCF80820D7
:1012E0000B683F2B1CDD5F2B20DD602B50D0B3F54E
:1012F000005F6DD0702B40F0A080D1E901E3C96898
:10130000DCF8082043EA0E0322F47F4243EA01217D
:101310001143CCF80810DCF8081041F077018AE09E
:101320001F2B29DC63B3102B2AD086E0402B63D01F
:10133000502B40F08280D1F804E0C968DCF82030FE
:10134000DCF8202022F00102CCF82020DCF8182064
:1013500022F0F00242EA011123F00A0242EA0E02F0
:10136000CCF81810CCF82020DCF8081041F0570118
:1013700021F020015FE000BF202B01D0302B5CD199
:10138000DCF8081021F07001194341F0070152E028
:10139000D1F804E0C968DCF8203023F01003CCF861
:1013A0002030DCF81830DCF8202023F4704322F0E1
:1013B000A00243EA013142EA0E12CCF81810CCF830
:1013C0002020DCF8081041F0670121F0100132E024
:1013D000D1E901E3C968DCF8082043EA0E0322F4EE
:1013E0007F4243EA01211143CCF80810DCF80810D1
:1013F00041F480411FE000BFD1F804E0C968DCF887
:101400002030DCF8202022F00102CCF82020DCF88B
:10141000182022F0F00242EA011123F00A0242EA07
:101420000E02CCF81810CCF82020DCF8081041F09F
:10143000470121F03001CCF808100121002280F88A
:101440003D1080F83C20104680BD00002DE9F0439F
:1014500090F83C30012B04BF0220BDE8F0834FEA36
:10146000B202032A00F2E980DFE802F0023A78B41F
:10147000036842F600461A6AC4F2010622F001022D
:101480001A621D6A1A465C6852F818CFB3428E6819
:10149000D1F800E025F0020545EA06050CD1CE683A
:1014A000D1E9057824F4407425F00C0526F00406F3
:1014B0003C43354344EA08042CF0730747EA0E071F
:1014C0005C609F614F6809695F631D629F6947F0B7
:1014D00008079F619F6927F004079F61AAE000BF8A
:1014E000036842F600461A6AC4F2010622F01002AE
:1014F0001A621D6A1A46D3F804C052F8184FB34254
:101500008E68D1F800E025F0200545EA061510D1D7
:10151000CE68D1E9058725F0C0096FF0400505EADE
:1015200006152CF4406647EA080745EA090546EA2D
:10153000870C24F4E64444EA0E27C3F804C09F61F4
:101540004F6809699F631D629F6947F400679F6147
:101550009F6927F480679F616BE000BF036842F6D4
:1015600000461A6AC4F2010622F480721A621D6AE9
:101570001A46D3F804C052F81CEFB3428E680C68C8
:1015800025F4007545EA062511D1CE68D1E9058715
:1015900025F44069360240F2FF4526EA05052CF4A1
:1015A000405647EA080745EA090546EA071C2EF0B7
:1015B00073072743C3F804C0DF614F680969DF631D
:1015C0001D62DF6947F00807DF61DF6927F0040764
:1015D000DF612FE0036842F600471A6AC4F2010790
:1015E00022F480521A621A46D3F820C05D6852F87D
:1015F0001C4FD1F800E08E68BB4204D14F6925F43E
:10160000804545EA87152CF4005747EA063724F44D
:10161000E64646EA0E265D60DE614E6809691E6494
:101620001F62DF6947F40067DF61DF6927F48067C5
:10163000DF610902136819431160002180F83C1032
:101640000846BDE8F0830000002804BF0120704771
:1016500010B5044690F83D0028B9002084F83C00FD
:10166000204600F067F8022084F83D00206840F230
:10167000FF730268C4F2000342F6004C9842C4F2C1
:10168000010C15DCB0F1804F1AD040F20041C4F2D9
:101690000001884214D0984218DCB0F1804F1DD070
:1016A00040F20041C4F20001884217D01AE000BFA6
:1016B000604505D040F60001C4F200018842EAD13D
:1016C000A16822F070020A439842E6DD604505D029
:1016D00040F60001C4F20001884203D1216922F4DE
:1016E00040720A43A36922F08001D4F804E0E26862
:1016F000194360450160C262C0F828E002D1616907
:10170000CCF8301001214161002084F8461084F8A3
:101710003E1084F83F1084F8401084F8411084F89B
:10172000421084F8431084F8441084F8451084F87B
:101730003D1010BD70470000002804BF0120704715
:1017400010B5044690F83D0028B9002084F83C000C
:10175000204600F061F8242084F83D002068D4E998
:101760000212C36823F40053C360036923F4405397
:101770001A430261D4E904231143C268194341F2B8
:101780000C639A431143C1604169A26921F440711D
:10179000114343F60002C4F201029042416103D0BA
:1017A000FFF794FA02E000BFFFF7A4FA626819217C
:1017B00048439100B0FBF1F048F21F51C5F2EB1124
:1017C000A0FB01235A094FF69C73C0F6FF7302FB7E
:1017D0000300322303EB0010A0FB0101F02303EA16
:1017E0005113206803EB0212C1F3431111448160CD
:1017F000016921F490410161416921F02A014161AF
:10180000C16841F40051C16000202021206484F8A7
:101810003D1084F83E1010BD70B586B040F600044F
:10182000C4F20104006804F5405100268842049681
:1018300002D006B070BD00BF41F21800C4F2020031
:10184000016802AD41F480410160016801F480410A
:1018500001910199016841F0040101600068294685
:1018600000F00400019001984FF4007002900220F3
:101870000390032005902046FEF716FE4FF480608B
:10188000CDE90206204629460496FEF70DFE06B075
:1018900070BD0000FEE70000B0B584B040F210005B
:1018A00042F20041C2F20000C4F20101002401250D
:1018B0004FF4602205730475C261C0E900148460AE
:1018C0000561FEF711FD002818BFFEF741FC40F24C
:1018D0001000C2F2000001A9CDE901450394FEF712
:1018E0003DFC002818BFFEF733FC04B0B0BD00007B
:1018F000F0B585B041F21800C4F20200016840F66C
:10190000004441F0100101600168C4F2010401F0DB
:101910001001019101990168002241F0200101604C
:1019200001684FF4805501F020010191019901688F
:10193000002641F004010160016801F004010191F9
:101940000199016841F00801016000684FF480517D
:1019500000F00800019001982046FEF7B3FE022037
:1019600001950390032001AD0127049020462946EC
:101970000297FEF799FD4FF40050CDE9010620468D
:1019800029460396FEF790FD4FF4404001A9C1C1DE
:1019900020462946FEF788FD4FF4807001A9C1C199
:1019A000A4F580602946FEF77FFD05B0F0BD00007C
:1019B00080B540F2400045F20041C2F20000C4F29E
:1019C000000148F2A06200234FF4804CC0F20102F3
:1019D00080E80E00C0E9033CC0E90533C0E90733E5
:1019E000FEF77CFE002808BF80BDBDE88040FEF702
:1019F000AFBB000080B586B040F2940042F60042D2
:101A00000021C2F20000C4F2010247234FF6FF7C1E
:101A10000591CDE90311CDE90011C0E90023C0E92A
:101A2000021CC0E904118161FFF7A6FB002818BF62
:101A3000FEF78EFB4FF48050029040F29400C2F209
:101A4000000002A9FFF738FC002818BFFEF780FB52
:101A500040F29400C2F200006946FFF74FFB0028F5
:101A600018BFFEF775FB06B080BD000010B594B03E
:101A700040F2DC000021C2F200004FF08042472318
:101A800044F61F640E91CDE90C110991CDE90711BF
:101A9000CDE90511CDE90311CDE90111C0E900231C
:101AA000C0E9021401618161FFF766FB002818BFDD
:101AB000FEF74EFB4FF480500B9040F2DC00C2F278
:101AC00000000BA9FFF7F8FB002818BFFEF740FB4A
:101AD00040F2DC00C2F20000FFF7B6FD002818BF9C
:101AE000FEF736FB40F2DC000024C2F2000008A939
:101AF000CDE90844FFF702FB002818BFFEF728FBDA
:101B0000602001904FF4FA70CDE90204059440F290
:101B1000DC04C2F2000401A920460022FFF796FC73
:101B2000002818BFFEF714FB20680021B0F1804F99
:101B3000129101D014B010BD41F21800C4F202009D
:101B4000016841F004010160006810A900F0040080
:101B50000F900F984FF400401090022011901390B6
:101B600040F60000C4F20100FEF79EFC0420C4F21F
:101B7000010001684FF6FF42CFF6FF02114041F02D
:101B8000E06141F48071016014B010BD80B540F295
:101B9000241043F60001C2F20000C4F20101002348
:101BA0004FF00C0C4FF4E13280E80E00C0E9033333
:101BB000C0E905C3C361FFF7BFFD002808BF80BDB2
:101BC000BDE88040FEF7C4BAFEE70000FEE7000073
:101BD0007047000070470000FEF76EBE70470000BF
:101BE000FEE7000094B0FEF775FE00240120CDE969
:101BF0000F44CDE90D440A900E904FF4E0104FF4DD
:101C00008031022513900AA80494CDE90244CDE95D
:101C10000B14CDE91151FFF781F828B1EFF31080D3
:101C200072B600BFFEE700BF0F20CDE905054FF4F7
:101C30008060CDE9080405A802210794FEF766FF3D
:101C400020B1EFF3108072B6FEE700BF02200190D2
:101C50004FF40040039001A8FEF7D2FE20B1EFF34D
:101C6000108072B6FEE700BFFFF742FEFFF7A0FE4E
:101C7000FFF7C0FEFFF78AFFFFF70EFEFFF7F6FE45
:101C8000FEE702E008C8121F08C1002AFAD1704717
:101C90007047002001E001C1121F002AFBD17047EC
:101CA000010200000000000000000102030406071A
:101CB00008090000000001020304020304050607EE
:101CC00008090A0B0C0D0E0F10100000F01C000884
:101CD0000000002010000000821C0008001D000809
:101CE0001000002060050000921C000800000000A9
:101CF00001000000100000000024F40000000000BB
:04000005080000ED02
:00000001FF
